:020000040800F2
:1000000088080020D5160008CF010008D10100089B
:10001000D5010008D9010008DD010008000000003A
:10002000000000000000000000000000E1010008E6
:10003000E301000800000000E5010008E7010008F6
:10004000EF160008EF160008EF160008EF1600087C
:10005000EF160008EF160008EF160008EF1600086C
:10006000EF160008EF160008EF160008EF1600085C
:10007000EF160008EF160008EF160008EF1600084C
:10008000EF160008EF160008EF160008EF1600083C
:10009000EF160008EF160008EF16000835340008C8
:1000A000EF160008EF160008EF160008EF1600081C
:1000B000EF1600084935000877350008EF160008EC
:1000C000EF160008EF160008EF160008EF160008FC
:1000D000EF1600082D150008EF160008EF160008AF
:1000E000EF160008EF160008EF160008EF160008DC
:1000F000EF160008EF160008EF160008EF160008CC
:10010000EF160008EF160008EF160008EF160008BB
:10011000EF160008EF160008EF160008EF160008AB
:10012000EF160008EF160008EF160008EF1600089B
:1001300000F002F800F03CF80AA090E8000C8244BD
:100140008344AAF10107DA4501D100F031F8AFF29A
:10015000090EBAE80F0013F0010F18BFFB1A43F0A5
:1001600001031847FC3A00001C3B0000103A24BF72
:1001700078C878C1FAD8520724BF30C830C144BF0C
:1001800004680C607047000000230024002500264E
:10019000103A28BF78C1FBD8520728BF30C148BFEA
:1001A0000B6070471FB503F0AAFC1FBD10B510BD52
:1001B00003F013FA1146FFF7F5FF03F0FBF803F025
:1001C00031FA03B4FFF7F2FF03BC01F04DF97047B9
:1001D00000BFFEE700BFFEE700BFFEE700BFFEE78F
:1001E000704770477047704700210020674A1268C7
:1001F00042F48032654B1A6000BF644A126802F410
:100200000030491C10B9B1F5A06FF6D15F4A1268F1
:1002100012F4003F01D0012000E00020012842D16B
:100220005B4A126842F01002594B1A601A46126873
:1002300022F003021A601A46126842F002021A60A3
:10024000524A5268514B5A601A4652685A601A46CE
:10025000526842F480625A601A46526822F47C1254
:100260005A601A46526842F4E8125A601A461268F6
:1002700042F080721A6000BF444A126812F0007F98
:10028000FAD0424A526822F00302404B5A601A46A2
:10029000526842F002025A6000BF3C4A526802F0C3
:1002A0000C02082AF9D1704710B5FFF79DFF10BD69
:1002B00010B53648006840F001003449086008462F
:1002C000406834490840314948600846006832496E
:1002D00008402E4908600846006820F48020086025
:1002E0000846406820F4FE0048604FF41F00886014
:1002F000FFF7DAFF4FF000602849086010BD10B525
:10030000002100200022214B5B6803F00C0121B189
:10031000042906D0082928D107E0214B214C23606D
:1003200027E01F4B1F4C236023E0184B5B6803F44E
:100330007010164B5B6803F48032022303EB90408D
:1003400022B9194B4343174C23600DE00F4B5B68F8
:1003500013F4003F04D0144B4343124C236003E0DA
:100360000F4B43430F4C236003E00D4B0D4C2360B8
:1003700000BF00BF054B5B68C3F303130B4CE15C8C
:10038000084B1B68CB40074C236010BD0010024097
:10039000002002400000FFF8FFFFF6FE08ED00E03D
:1003A00000127A000000002000093D000400002037
:1003B00008B50121202001F02FFD0220ADF800003A
:1003C00010208DF8030003208DF8020069461D48B7
:1003D00001F06EFA02211B4801F015FB0420ADF874
:1003E000000010208DF8030003208DF802006946FC
:1003F000144801F05DFA0421124801F004FB0820C2
:10040000ADF8000010208DF8030003208DF80200E5
:1004100069460C4801F04CFA08210A4801F0F3FA49
:100420001020ADF800008DF8030003208DF80200C5
:100430006946044801F03CFA1021024801F0E3FA51
:1004400008BD00000014014008B50121342001F06E
:10045000E3FC2020ADF8000048208DF80300694639
:10046000304801F025FA4020ADF8000048208DF812
:10047000030069462C4801F01BFA0120ADF800008A
:1004800028208DF803006946284801F011FA08BDBC
:1004900010B5044614B1012025490870244800789D
:1004A00058B320211F4801F094FA50B140211E4852
:1004B00001F08FFA28B101211C4801F08AFA0128C5
:1004C0001BD10A2000F081FF00201949087001218A
:1004D000164801F07EFA012801D1032010BD202129
:1004E000104801F076FA08B90120F7E740210E48DC
:1004F00001F06FFAA0B90220F0E701210B4801F0EA
:1005000068FA68B92021074801F063FA012807D189
:100510004021054801F05DFA012801D10449087025
:100520000020DBE7001001400014014000080140FA
:1005300014000020F448006820F47040F24908607C
:100540000846006840F4004008607047EE480068C4
:1005500020F47040EC4908600846006840F44050C0
:100560000860704708B501210C2001F055FC1020EF
:10057000ADF8000048208DF803006946E24801F01C
:1005800097F92020ADF8000010208DF8030003201B
:100590008DF802006946DC4801F08AF94020ADF888
:1005A000000048208DF803006946D74801F080F923
:1005B0004020ADF8000048208DF803006946D3487C
:1005C00001F076F90120D24908604FF00000D149CE
:1005D000C1F8940108BD70B50546002405E0601C13
:1005E000C4B2C82C01DD002070BD0221CA4802F04F
:1005F000ABFE0028F3D02946C74802F052FE002483
:1006000000BF0121C44802F09FFE0028F9D0601C01
:10061000C4B2C82C01DD0020E6E7BF4802F043FE6B
:10062000C0B2E1E700B587B0012141F2040001F05A
:10063000F3FB7020ADF8180018208DF81B00032084
:100640008DF81A0006A9B04801F032F97021AE48C1
:1006500001F0D9F90020ADF80400ADF80600ADF8BE
:1006600008000220ADF80A000120ADF80C0040029D
:10067000ADF80E003820ADF810000020ADF81200E3
:100680000720ADF8140001A9A44802F031FD0121B2
:10069000A24802F0D0FDFF20FFF79DFF07B000BD8C
:1006A00000B587B00121082001F0B6FB01218803C5
:1006B00001F0BFFB4FF46040ADF8180018208DF832
:1006C0001B0003208DF81A0006A9904801F0F0F8ED
:1006D0004FF460418D4801F096F90020ADF8040018
:1006E0004FF48270ADF806000020ADF8080002203B
:1006F000ADF80A000120ADF80C004002ADF80E0084
:100700001820ADF810000020ADF812000720ADF859
:10071000140001A9804802F0EBFC01217E4802F0A0
:100720008AFDFF20FFF757FF07B000BD10B5044654
:10073000794800884FF6C771084077490880084615
:100740000088204308800121734802F074FD10BD29
:1007500010B50446714800884FF6C77108406F49CC
:100760000880084600882043088001216B4802F079
:1007700062FD10BD70B50546002405E0601CC4B2E2
:10078000C82C01DD002070BD0221644802F0DCFDB0
:100790000028F3D02946614802F083FD002405E0DB
:1007A000601CC4B2C82C01DD0020ECE701215B48CD
:1007B00002F0CAFD0028F3D0584802F074FDC0B220
:1007C000E1E770B5044600251DE014F0800F03D06A
:1007D00001205349086002E00020514908604FF0B1
:1007E000010000F0CFFD01204E49086000F0CAFD75
:1007F00000204849C1F894016006040E012000F071
:10080000C1FD681CC5B2082DDFDB70BD70B50446A4
:1008100000204349086005461DE014F4004F03D052
:1008200001203F49086002E000203D4908604FF088
:10083000010000F0A7FD01203A49086000F0A2FD88
:1008400000203449C1F894016004040C012000F038
:1008500099FD681CC5B2102DDFDB70BD70B500249A
:1008600000202F490860FFF765FE00251CE04021AD
:10087000254801F0AEF820B1012040EA440084B2DE
:1008800001E06004040C012000F07CFD01202549FA
:10089000086000F077FD00201E49C1F89401012096
:1008A00000F070FD681CC5B2102DE0DBFFF74EFEB6
:1008B000204670BD70B50024FFF73CFE00251CE00B
:1008C0004021114801F085F820B1012040EA4400A0
:1008D000C4B201E06006040E012000F053FD0120C7
:1008E0001049086000F04EFD00200A49C1F894014B
:1008F000012000F047FD681CC5B2082DE0DBFFF7C2
:1009000025FE204670BD000000080140000C01409B
:100910009001214200002142003800400030014097
:10092000980121429401214270B504460D460020F1
:10093000FE49086000BF2046FFF743FF0A2000F091
:1009400021FD2846FFF762FF0A2000F01BFD012071
:10095000F749C1F8900170BD70B504460020F34915
:10096000086044F080042046FFF72BFF0A2000F0C7
:1009700009FDFFF773FF05460A2000F003FD012083
:10098000EB49C1F89001284670BD70B504460E468B
:100990002546E848C08940EA053085B22946072047
:1009A000FFF7C2FF31460820FFF7BEFF70BD70B5EC
:1009B00004460E462546DF48C08940EAC51529464B
:1009C0000720FFF7B1FF31460920FFF7ADFF70BDEB
:1009D00070B504462546D748C08940EA053085B23F
:1009E00029460720FFF7A0FF0820FFF7B5FF0546BF
:1009F000284670BD00BF1FE0CF48006880F00100AE
:100A0000CE49C1F884010846D0F8880180F0010081
:100A1000C1F888010846D0F88C0180F00100C1F8C7
:100A20008C010846D0F8900180F00100C1F89001D7
:100A30004FF47A7000F0C9FCDEE710B5002407E03F
:100A4000BC4830F814102046FFF76EFF601CC4B29B
:100A5000082CF5DB0A2407E0B64830F814102046CD
:100A6000FFF762FF601CC4B2102CF5DB002407E026
:100A7000B34830F814102046FFF787FF601CC4B25B
:100A8000102CF5DB002407E0AE4830F814102046A7
:100A9000FFF78DFF601CC4B2052CF5DB0020FFF7CB
:100AA0005BFFA9490880A34800880988884201D0D3
:100AB000FFF7A0FF10BD2DE9F0419E48C08B40F626
:100AC000020240EA02010F20FFF72EFF00BF0F20B5
:100AD000FFF742FF044640F602000442F7D10E2021
:100AE000FFF73AFF0446C4F300150DB1FFF782FF8C
:100AF0000A20FFF76DFF0446C4F300170FB1FFF79C
:100B000079FF4FF498410C20FFF70EFF4FF4784126
:100B10000220FFF73AFF8A48008840F46041002035
:100B2000FFF733FF8348C08B40F480510F20FFF75D
:100B3000FBFE00BF0F20FFF70FFF044614F4805F99
:100B4000F8D17C48018B0C20FFF7EEFE7C488188B1
:100B50000220FFF71AFF7A4801880020FFF715FFEF
:100B60007448C08B40F004010F20FFF7DDFE00BF8A
:100B70000F20FFF7F1FE044614F0040FF8D10E2009
:100B8000FFF7EAFE0446C4F300260EB1FFF732FF7A
:100B90000020BDE8F08110B50446002063490860DC
:100BA0002046FFF70EFE01206149C1F8900110BDFB
:100BB0002DE9F05F06466549304602F0AFFD8246FA
:100BC000504602F06DFEC4B2204602F089FE834614
:100BD0004FF07E5102F0CCFE8146514602F09BFF61
:100BE00007464FF08F41384602F0C2FE814602F0C0
:100BF00057FE1FFA80F81420FFF7CDFF4D48C0883C
:100C0000C0F30E0529460320FFF78EFE4948808970
:100C1000C0F30B0529460620FFF786FE4C493046F7
:100C200002F072FE06D2434800894EF6FF7100EAD8
:100C3000010503E03F48008940F48055294604201F
:100C4000FFF772FE3B48408800F47F4545EA040107
:100C50000120FFF769FE41460220FFF765FE0021F3
:100C60000220FFF7A4FEBDE8F09F70B5FF254FF608
:100C7000FF763348808840F010010220FFF785FEA0
:100C800000BF2F48C08B40F001010F20FFF77DFE11
:100C900000BF0F20FFF79CFE00F0010424B13000DC
:100CA000A6F101018EB2F4D10F20FFF791FEC0F33F
:100CB0004804BA2C03DDC62C01DA052070BD2800DB
:100CC000A5F10101CDB2DCD10420F7E710B51A4837
:100CD000006880F001001949C1F884010846D0F885
:100CE000880180F00100C1F888010846D0F88C0125
:100CF00080F00100C1F88C010846D0F8900180F026
:100D00000100144908604FF0640000F05EFB0B48DE
:100D1000D0F8840180F001000849C1F88401084638
:100D2000D0F8880180F0010016E000009001214217
:100D300000002142163C00088481224200802242A9
:100D4000363C0008563C000864000020CDCC4C41E5
:100D50000000574490812242C1F888010846D0F82B
:100D60008C0180F00100C1F88C010846D0F8900198
:100D700080F00100F84908604FF0640000F025FBA6
:100D8000F648D0F8840180F00100F449C1F88401EC
:100D90000846D0F8880180F00100C1F888010846B3
:100DA000D0F88C0180F00100C1F88C010846D0F821
:100DB000900180F00100E84908604FF0640000F005
:100DC00004FBE648D0F8840180F00100E349C1F853
:100DD00084010846D0F8880180F00100C1F888013C
:100DE0000846D0F88C0180F00100C1F88C0108465B
:100DF000D0F8900180F00100C1F8900110BD10B54D
:100E000004460020D64908604FF02000FFF7D9FCC7
:100E1000200EFFF7D6FCC4F30740FFF7D2FCC4F363
:100E20000720FFF7CEFCE0B2FFF7CBFC0120CD4955
:100E3000C1F89001002010BD10B504460120C8493A
:100E400008604FF00000C749C1F894014FF001005D
:100E5000C54908604FF07000FFF79DFE0A2000F0C2
:100E6000B4FAFFF7EAFD0A2000F0AFFABF48FFF737
:100E7000C6FF012000F0A9FA2046FFF799FE0A20DC
:100E800000F0A3FAFFF717FEFFF720FF1420FFF78B
:100E900082FE012010BD70B50024B548C0894FF214
:100EA000CF710840044321460720FFF73DFD09208C
:100EB000FFF752FD0546284670BD10B504461420C4
:100EC000FFF769FE142000F080FAA948C0894FF6A8
:100ED000FE7200EA02010720FFF726FD322C2AD01D
:100EE00004DC022C07D00A2C44D114E0642C31D04D
:100EF000962C3FD13DE046F221610020FFF714FD22
:100F000041F6D4010A20FFF70FFD4FF205510020F2
:100F1000FFF73BFD3AE041F221210020FFF704FDFD
:100F200041F6D4010A20FFF7FFFC4FF206710020C2
:100F3000FFF72BFD2AE023210020FFF7F5FC41F607
:100F4000D0010A20FFF7F0FC4FF206610020FFF706
:100F50001CFD1BE021210020FFF7E6FC41F6D40137
:100F60000A20FFF7E1FC4FF206710020FFF70DFDAC
:100F70000CE00BE07E48C08940F001010720FFF73C
:100F8000D3FC142000F021FA012010BD00BF7848E6
:100F9000C08940F001010720FFF7C6FC142000F0D3
:100FA00014FA0020F1E770B504461420FFF7F3FDB2
:100FB0007048408B00F47F45601E284381B20D20AD
:100FC000FFF7E3FC6B48808A4CF2FF0100EA010561
:100FD00029460A20FFF7D9FC002070BD10B5044651
:100FE000022C02D0042C1BD109E06148808B4BF607
:100FF000FB7200EA02010E20FFF7C7FC12E05C481A
:10100000808B4BF6FB7200EA02010E20FFF7BDFC5D
:101010005748808B40F004010E20FFF7B6FC01E03A
:10102000012010BD00BF0020FBE770B504460D464F
:101030006020FFF7B0FD012000F0C7F9002048490B
:1010400008604FF04000FFF7BCFB03E014F8010B11
:10105000FFF7B7FB2800A5F10101CDB2F6D10120C1
:101060003F49086070BD70B504460D46E020FFF7AB
:1010700092FD022000F086F90020394908604FF007
:10108000C000FFF79EFB03E0FFF714FC04F8010B20
:101090002800A5F10101CDB2F6D101203049086048
:1010A00070BD70B50446022C01DB072C01DD012068
:1010B00070BD1420FFF76FFD2D4800894FF6F071C9
:1010C00000EA010545EA440040F001010420FFF771
:1010D0005CFC0A2000F056F90120FFF779FCC0F310
:1010E000C01080F00100E3E770B54FF6FF751820DF
:1010F000FFF751FD1E48008B4FF6FF6200EA020128
:101100000C20FFF711FC0F20FFF726FC40F0010632
:1011100031460F20FFF708FC00BF0F20FFF71CFC33
:1011200000F001042800A5F101018DB201D0002CCE
:10113000F3D1002D04DD0C20FFF70EFCC4B200E05B
:1011400000241420FFF727FD204670BD10B5FFF7DF
:101150008CFD042810D110BD9081224200802242D3
:101160009001214200002142980121428BC5753433
:10117000163C0008363C00081420FFF70CFD452102
:101180000820FFF702FC40F27F210120FFF7FDFB62
:101190004248408B40F480610D20FFF7C5FB3F487B
:1011A000C08B40F400710F20FFF7BEFB0020D2E798
:1011B00010B51420FFF7EFFC45210820FFF7E5FBF1
:1011C0004FF605410120FFF7E0FBFFF74EFD042835
:1011D00000D110BD3248808840F010010220FFF796
:1011E000D4FB2E48C08B40F400710F20FFF79CFB0E
:1011F0000020EEE710B51420FFF7CDFC4D210820AC
:10120000FFF7C3FB4FF605410120FFF7BEFBFFF7D9
:101210002CFD042800D110BD2148808840F0300109
:101220000220FFF7B2FB1D48C08B40F400710F2075
:10123000FFF77AFB0020EEE70EB50121084600F02B
:10124000EBFD0621012000F047FC4020019000202A
:101250008DF808000C208DF8090001208DF80A0097
:1012600001A800F0B7F917208DF8000002208DF8D2
:1012700001008DF8020001208DF80300684600F09F
:101280004EFA1620FFF787FC022000F07BF81820AA
:10129000FFF781FC022000F075F80EBD163C000837
:1012A000363C00087FB505460C460121022000F0BF
:1012B000C0FDADF80850ADF804400020ADF80A00BC
:1012C000ADF8060001A9234800F0E2FE0122114614
:1012D000204801F032FA1D208DF8000004208DF81E
:1012E00001008DF8020001208DF80300684600F02F
:1012F00016FA0121174801F0FBF97FBD7FB50546BD
:101300000C460121042000F094FDADF80850ADF822
:1013100004400020ADF80A00ADF8060001A90E480F
:1013200000F0B6FE012211460B4801F006FA1E201D
:101330008DF8000003208DF801008DF802000120D7
:101340008DF80300684600F0EAF90121024801F037
:10135000CFF97FBD000400400008004010B56FF0D9
:10136000040000F027FA2A4800682A49B0FBF1F08F
:1013700029490870084600784FF47A714843274994
:10138000088010BD0146244A12784A434FF0E023FA
:101390005A6100229A611A46126942F001021A61EA
:1013A00000BF4FF0E022106910F0010F02D010F4DE
:1013B000803FF6D04FF0E022126922F001024FF098
:1013C000E0231A6100229A6170470146134A12888D
:1013D0004A434FF0E0235A6100229A611A4612698B
:1013E00042F001021A6100BF4FF0E022106910F0D4
:1013F000010F02D010F4803FF6D04FF0E0221269C6
:1014000022F001024FF0E0231A6100229A61704736
:101410000000002000127A00660000206800002012
:1014200010B54FF4A06000F075F910BD10B5FFF7CE
:1014300095FFFFF7F5FF4FF4E13000F028F8FEF7D5
:10144000B7FFFFF701F8FFF78DF80648FFF7F4FC48
:1014500041F61F4140F2E730FFF724FFFFF7ECFEB3
:1014600010BD00002100EB43014600BF704770B57E
:1014700004460D4600BF40214B4801F0BAFD00284C
:10148000F9D0E1B2484801F046FD204670BD10B5E4
:1014900086B00446012144F2040000F0BDFC42483D
:1014A00001F0FAFB4FF40070ADF8140003208DF842
:1014B000160018208DF8170005A93C4800F0F8F92F
:1014C0004FF48060ADF8140004208DF8170005A9D2
:1014D000364800F0EDF901940020ADF80800ADF8B1
:1014E0000A00ADF80C00ADF810000C20ADF80E00AD
:1014F00001A92D4801F013FC25208DF800000320E0
:101500008DF801008DF8020001208DF80300684677
:1015100000F005F9012240F22551234801F097FC23
:101520000121214801F087FC06B010BD10B540F242
:1015300025511D4801F073FD10B31B4801F0EFFC6D
:10154000C4B21B48008810F4004F2BD11848008803
:1015500010F4804F0CD00A2C03D0002014490880CE
:1015600020E01348008840F400401149088019E049
:101570000D2C06D10E48008840F480400C490880AC
:1015800010E00B480088C0F30D000A490C540848CD
:101590000088401C0649088008460088C72801DDED
:1015A0000020088010BD0000003801400008014004
:1015B0006C000020A0000020002044490860091DA4
:1015C0000860091D0860091D086041483F49143141
:1015D0000860704700213D498279002A3AD00A46C6
:1015E000126803689A430B461A600A1D1268036862
:1015F0009A430B1D1A60027911440A6803681A4362
:101600000A60324A0832126803689A432F4B083343
:101610001A601A1D126803689A432C4B0C331A6027
:101620004279102A0ED11A1F126803681A43274BF9
:1016300008331A601A1D126803681A43234B0C33CF
:101640001A600DE02149427911440A6803681A437F
:101650000A6005E0027911440A6803689A430A6047
:1016600070470021016001710C21417100218171DD
:1016700070471649103109680143144A103211604D
:10168000704701460020114A143212680A4201D004
:10169000012000E0002070470C49143108607047B9
:1016A000014600200022094B1B6803EA0102074B98
:1016B00014331B680B4202D00AB1012000E0002065
:1016C000704702491431086070470000000401406F
:1016D000FFFF0F000948804709480047FEE7FEE783
:1016E000FEE7FEE7FEE7FEE7FEE7FEE7FEE7FEE7D2
:1016F00004480549054A064B70470000B10200083E
:101700003101000888020020880800208804002099
:101710008804002031490143314A1160704770B597
:10172000002100230F22C4780CB32D4C246804F44C
:10173000E064C4F5E064210AC1F10403CA404478BE
:1017400004FA03F18478144021430901254C0678FA
:10175000A155047804F01F050124AC4005786D11F3
:101760004FF0E02606EB8505C5F8004109E0047856
:1017700004F01F050124AC401B4D0678761145F896
:10178000264070BD194A0A400243154B1B1F1A60C0
:10179000704739B1124A121D12680243104B1B1DCB
:1017A0001A6006E00E4A121D126882430C4B1B1D84
:1017B0001A607047042808D14FF0E021096941F010
:1017C00004014FF0E022116107E04FF0E0210969C8
:1017D00021F004014FF0E022116170470000FA058A
:1017E0000CED00E000E400E080E100E080FFFF1F7E
:1017F00010B50446CA48844208D10121042000F0F3
:1018000025FB0021042000F021FB46E0C54884426E
:1018100008D10121082000F019FB0021082000F068
:1018200015FB3AE0C048844208D10121102000F0A5
:101830000DFB0021102000F009FB2EE0BB48844284
:1018400008D10121202000F001FB0021202000F020
:10185000FDFA22E0B648844208D10121402000F080
:10186000F5FA0021402000F0F1FA16E0B148844278
:1018700008D10121802000F0E9FA0021802000F049
:10188000E5FA0AE0AC48844207D10121801500F056
:10189000DDFA0021A01500F0D9FA10BD10B5012124
:1018A000084600F0D3FA0021012000F0CFFA10BD65
:1018B0002DE9F041024600250026002000230024E7
:1018C000002791F803C00CF00F0591F803C01CF03D
:1018D000100F03D091F802C04CEA0505B1F800C022
:1018E0001CF0FF0F31D0146800202BE04FF0010CEA
:1018F0000CFA00F3B1F800C00CEA03069E4220D1B6
:1019000083004FF00F0C0CFA03F7BC4305FA03FCFD
:101910004CEA040491F803C0BCF1280F06D14FF043
:10192000010C0CFA00FCC2F814C00AE091F803C0E4
:10193000BCF1480F05D14FF0010C0CFA00FCC2F8C5
:1019400010C0401C0828D1D31460B1F800C0BCF10D
:10195000FF0F34DD546800202EE000F1080C4FF03A
:10196000010808FA0CF3B1F800C00CEA03069E4225
:1019700021D183004FF00F0C0CFA03F7BC4305FA9A
:1019800003FC4CEA040491F803C0BCF1280F05D114
:1019900000F1080C08FA0CF8C2F8148091F803C0A2
:1019A000BCF1480F07D100F1080C4FF0010808FA0C
:1019B0000CF8C2F81080401C0828CED35460BDE853
:1019C000F0814FF6FF710180022181700421C17006
:1019D00070470246002093680B4201D0012000E0CE
:1019E000002070470146886880B270470246002098
:1019F000D3680B4201D0012000E00020704701466F
:101A0000C86880B2704701617047416170470AB190
:101A1000016100E041617047C16070474FF480325E
:101A20000A438261816182618269826970470246EC
:101A30000020424B18684FF68073184040EA0210AD
:101A400008433E4B186070473D49C8617047F0B588
:101A50000A46002300240021002500F00046B6F1CC
:101A6000004F02D1354EF16901E0344E7168C0F388
:101A7000034583B200F44016B6F5401F08D121F0AB
:101A800070612E4E766826F070662C4F7E6012E0F4
:101A900000F48016B6F5801F06D1032606FA05F479
:101AA000A14341F0706106E0460D360103FA06F6E7
:101AB000B14341F0706122B1460D360103FA06F6DA
:101AC000314300F00046B6F1004F02D11B4EF161E8
:101AD00001E01A4E7160F0BD30B500228B071C0F7B
:101AE0000F2303FA04F2154B08338C1053F82430FB
:101AF0009343124C08348D1044F8253023468C1043
:101B000053F824308C07240F00FA04F423430B4CC1
:101B100008348D1044F8253030BD0A4908607047FC
:101B200000080140000C0140001001400014014079
:101B300000180140001C014000200140000001404D
:101B400000002042DC002042DC48006840F0010038
:101B5000DA49086008464068D9490840D7494860D2
:101B600008460068D7490840D4490860084600681C
:101B700020F4802008600846406820F4FE00486099
:101B80004FF41F0088607047CC49096821F4803108
:101B9000CA4A11601146096821F480211160B0F52C
:101BA000803F03D0B0F5802F0ED106E0C34909680D
:101BB00041F48031C14A116007E0C049096841F42D
:101BC000A021BE4A116000E000BF00BF704710B501
:101BD00001460022002300204A11012A02D1B74CFD
:101BE000236806E0022A02D1B44C236A01E0B34C18
:101BF000636A01F01F02012494401C4201D00120BD
:101C000000E0002010BD70B500240025002600BFB4
:101C10003120FFF7DCFF0646641CB4F5A06F01D04D
:101C2000002EF5D03120FFF7D2FF08B1012500E0EA
:101C30000025284670BD01460020A04A106820F00B
:101C4000F80040EAC100106070479F490860704783
:101C500002460020994B586820F47C1042EA0103A8
:101C60001843964B5860704797490866704701467D
:101C70000020924A506820F00300084350607047EB
:101C80008E48406800F00C007047014600208B4AE7
:101C9000506820F0F0000843506070470146002073
:101CA000864A506820F4E06008435060704701465F
:101CB0000020824A506820F4605040EAC100506021
:101CC000704729B17D4A527A02437C4B5A7206E032
:101CD0007A4A527AC343DBB21A40784B5A72704741
:101CE0007A490860704701460020744A506820F421
:101CF00040400843506070470021754A11706F4A98
:101D000082F82010012802D0042808D103E0012124
:101D10006F4A117004E005216D4A117000E000BFA8
:101D200000BF70476B49086070476449096A014306
:101D3000624A11627047674944390860704730B59C
:101D400000210022002400235C4D6D6805F00C0189
:101D500021B1042905D0082923D105E05E4D056095
:101D600022E05D4D05601FE0544D6D6805F4701272
:101D7000524D6D6805F48034022505EB92421CB982
:101D8000564D554305600BE04C4D6D6815F4003F12
:101D900003D0524D5543056002E04F4D5543056059
:101DA00002E04D4D056000BF00BF444D6D6805F079
:101DB000F00109094A4D6B5C0568DD4045603F4D07
:101DC0006D6805F4E061090A454D6B5C4568DD40CE
:101DD00085603A4D6D6805F46051C90A404D6B5CF1
:101DE0004568DD40C560354D6D6805F44041890B9F
:101DF0003C4D6B5CC568B5FBF3F5056130BD29B1A1
:101E00002E4A526902432D4B5A6104E02B4A526913
:101E100082432A4B5A61704729B1284A926902438A
:101E2000264B9A6104E0254A92698243234B9A61CA
:101E3000704729B1214AD2690243204BDA6104E09C
:101E40001E4AD26982431D4BDA61704729B11B4A91
:101E5000D2680243194BDA6004E0184AD268824320
:101E6000164BDA60704729B1144A12690243134BCA
:101E70001A6104E0114A12698243104B1A617047DB
:101E800014494039086070470F49C86470470B49CE
:101E9000C87170470948406A40F08070074948623D
:101EA000704701460020054A92680A4201D001208D
:101EB00000E000207047014988727047001002401E
:101EC0000000FFF8FFFFF6FE00004242D800424249
:101ED000201002408004424200127A0000093D00B6
:101EE000740000208400002010B50446FE4884429F
:101EF00008D10121C014FFF7A9FF0021E014FFF76A
:101F0000A5FFC4E0B4F1804F08D101210846FFF7D6
:101F1000AAFF00210120FFF7A6FFB8E0F3488442A2
:101F200008D101210220FFF79EFF00210220FFF7C8
:101F30009AFFACE0EE48844208D101210420FFF76B
:101F400092FF00210420FFF78EFFA0E0E9488442C1
:101F500008D101210820FFF786FF00210820FFF7A4
:101F600082FF94E0E448844208D101211020FFF769
:101F70007AFF00211020FFF776FF88E0DF488442D7
:101F800008D101212020FFF76EFF00212020FFF75C
:101F90006AFF7CE0DA48844208D101214014FFF74F
:101FA00055FF00216014FFF751FF70E0D5488442CF
:101FB00009D10121C804FFF749FF00214FF4002097
:101FC000FFF744FF63E0D048844209D101210805AE
:101FD000FFF73CFF00214FF48010FFF737FF56E07A
:101FE000CA48844209D101214805FFF72FFF00218B
:101FF0004FF40010FFF72AFF49E0C548844208D19A
:1020000001214020FFF72FFF00214020FFF72BFF89
:102010003DE0C048844208D101218020FFF723FF22
:1020200000218020FFF71FFF31E0BB48844208D128
:1020300001218015FFF717FF0021A015FFF713FFFF
:1020400025E0B648844209D101210804FFF7FEFECD
:1020500000214FF48030FFF7F9FE18E0B0488442C9
:1020600009D101214804FFF7F1FE00214FF40030AF
:10207000FFF7ECFE0BE0AB48844208D10121880455
:10208000FFF7E4FE00214FF48020FFF7DFFE10BDD4
:1020900000220288944B98420ED0994B98420BD064
:1020A000B0F1804F08D0914B984205D0904B9842A8
:1020B00002D0904B984204D14FF68F731A404B8850
:1020C0001A438D4B984207D08C4B984204D04FF660
:1020D000FF431A40CB881A4302808B8883850B8884
:1020E0000385814B98420BD0854B984208D08B4B8F
:1020F000984205D08A4B984202D08A4B984201D12F
:102100000B7A038601238382704770B50024002276
:102110000023058C4FF6FE7635400584028C8388BB
:10212000048B4FF68F752C40B51E2C400D882C4328
:10213000751E2A400D892A434D882A436A4DA842BC
:102140000BD06F4DA84208D0744DA84205D0744DF5
:10215000A84202D0734DA84213D14FF6F7752A401A
:102160004D892A434FF6FB752A408D882A434FF646
:10217000FF652B404FF6FF552B408D892B43CD89B2
:102180002B4383800483CD888586028470BD70B51F
:10219000002400220023058C4FF6EF76354005849D
:1021A000028C8388048B48F6FF752C404FF6FF4560
:1021B0002C400D882D0644EA15444FF6DF752A4061
:1021C0000D892D0542EA15424D882D0542EA15423A
:1021D000454DA84202D04A4DA8421BD14FF67F750B
:1021E0002A404D892D0542EA15424FF6BF752A4017
:1021F0008D882D0542EA15424FF6FF352B404FF2F0
:10220000FF752B408D89AD0443EA1543CD89AD049C
:1022100043EA154383800483CD880587028470BD1B
:1022200070B5002400220023058C4FF6FF66354070
:102230000584028C8388848B4FF68F752C404FF673
:10224000FC752C400D882C434FF6FF552A400D8914
:102250002D0642EA15424D882D0642EA1542224DCE
:10226000A84202D0264DA8421BD14FF2FF752A404A
:102270004D892D0642EA15424FF6FF352A408D88DA
:102280002D0642EA15424EF6FF752B404DF6FF75BE
:102290002B408D892D0543EA1543CD892D0543EA51
:1022A000154383808483CD888587028470BD70B593
:1022B000002200230024058C4EF6FF76354005846D
:1022C000038C8488828B48F6FF752A404FF6FF45C1
:1022D0002A400D882D0642EA15424DF6FF752B4027
:1022E0000D892D0720E00000002C01400004004073
:1022F00000080040000C00400010004000140040A6
:1023000000340140004C01400050014000540140A5
:1023100000180040001C0040002000400040014028
:10232000004401400048014043EA15434D882D0711
:1023300043EA1543F84DA84202D0F84DA84206D111
:102340004BF6FF752C408D89AD0544EA1544848019
:102350008283CD88A0F84050038470BD828B4FF2F9
:10236000FF331A408283828B0B0642EA1342828338
:102370007047F0B50C461546002200210026078C58
:102380004EF6FF7C07EA0C070784828B018C270737
:102390003E0C40F6FF473A402F0642EA17421F071D
:1023A00042EA1742DC4FB8420ED0DC4FB8420BD0A5
:1023B000B0F1804F08D0DA4FB84205D0D94FB842BB
:1023C00002D0D94FB84206D14DF6FF77394046F4D6
:1023D0008057394305E047F6FF57394044F48057AA
:1023E000394382830184F0BD828B4FF6F3731A4028
:1023F0008283828B0A4382837047F0B50C46154670
:10240000002200210026078C4FF6FF6C07EA0C071C
:102410000784828B018C27063E0C4FF60C773A40DE
:102420001F0545EA17473A43BB4FB8420ED0BB4F92
:10243000B8420BD0B0F1804F08D0B94FB84205D0A8
:10244000B84FB84202D0B84FB84206D14FF6FF5746
:10245000394046F48077394305E04FF2FF57394061
:1024600044F48077394382830184F0BD028B4FF2BC
:10247000FF331A400283028B0B0642EA13420283A7
:102480007047F0B50C461546002200210026078C47
:102490004FF6EF7C07EA0C070784028B018C2705B7
:1024A0003E0C40F6FF473A401F0742EA17422F060C
:1024B00042EA1742984FB8420ED0984FB8420BD01C
:1024C000B0F1804F08D0964FB84205D0954FB84232
:1024D00002D0954FB84206D14FF6DF77394046F02B
:1024E0001007394305E04FF65F77394044F0100795
:1024F000394302830184F0BD028B4FF6F3731A4017
:102500000283028B0A4302837047F0B50C461546DE
:1025100000220021068C4FF6FE773E400684028B97
:10252000018C4FF60C7632401E0545EA16463243C2
:10253000794EB0420ED0794EB0420BD0B0F1804F00
:1025400008D0774EB04205D0764EB04202D0764EDB
:10255000B04206D14FF6FD76314044F001063143DA
:1025600005E04FF6F576314044F001063143028331
:102570000184F0BD70B505460C46674885420ED013
:10258000664885420BD0B5F1804F08D0644885423B
:1025900005D06448854202D06348854200D100E0FE
:1025A00000BF208850B92389A28861882846FFF798
:1025B000ACFFE1882846FFF79FFF25E0208804282C
:1025C0000AD12389A28861882846FFF75AFFE1884B
:1025D0002846FFF74BFF17E0208808280AD12389F7
:1025E000A28861882846FFF708FFE1882846FFF7A0
:1025F000FBFE09E02389A28861882846FFF7B9FE1F
:10260000E1882846FFF7AAFE70BD2DE9F041054696
:102610000C4600260127608808B9022600E0002643
:10262000A088012801D1022700E001272088A0B955
:102630002389A28861882846FFF767FFE18828463A
:10264000FFF75AFF23893A4631462846FFF719FF1C
:10265000E1882846FFF70AFF13E02389A2886188F2
:102660002846FFF70EFFE1882846FFF7FFFE238983
:102670003A4631462846FFF748FFE1882846FFF7EB
:102680003BFFBDE8F0810A884B881A438B881A43C8
:10269000CB881A430B891A434B891A438B891A43F7
:1026A000A0F8442070474FF6FF718180002101801F
:1026B000C18041800172704700210180418081808A
:1026C000C180018141818181C181704700210180E8
:1026D0004180012181800021C1800181704700215A
:1026E000018041808180C180018141818181704769
:1026F00021B1028842F00102028004E002884FF614
:10270000FE731A400280704781B1B0F8442042F451
:102710000042A0F844200FE0002C014000340140AA
:102720000004004000080040000C0040B0F84420C5
:10273000C2F30E02A0F84420704710B51AB1838985
:102740000B43838104E08389CC43A4B2234083817B
:1027500010BD8182704741EA0203A0F848307047FB
:1027600010B51AB183890B43838104E08389CC437C
:10277000A4B22340838110BD01894FF6F872114045
:10278000018170470A46002101894FF68F73194075
:1027900011430181704730B504460D462946204655
:1027A000FFF7F0FF208940F00700208130BD2DE9C0
:1027B000F04104460D4616461F46602D06D13B46A5
:1027C000012231462046FFF75CFE05E03B46012230
:1027D00031462046FFF799FE29462046FFF7D2FFF3
:1027E000208940F007002081BDE8F08130B50C461B
:1027F00000210189C9B21D0642EA15452543294336
:10280000018130BD2DE9F04105460E461746984638
:10281000002443463A4631462846FFF7E7FF2C8915
:102820004FF6F870044044F007044FF68F700440F0
:1028300044F070042C81BDE8F081F0B504460D46EB
:1028400016461F463B46324629462046FFF7CEFF36
:10285000208940F480402081F0BD0185828270474C
:102860000A46002101884FF68F73194011430180F9
:102870007047F0B50C4615461E4600210022002385
:102880000189028B038C4FF6F877394021434FF6CC
:10289000FC473A4040F201173A434FF6DD773B40A0
:1028A000370545EA17473B43018102830384F0BDA6
:1028B0000A460021018B4FF68F73194011430183A3
:1028C00070470A460021018B48F6FF731940130632
:1028D00041EA1341018370470A460021818B4FF67C
:1028E0008F7319401143818370470A460021818B01
:1028F00048F6FF731940130641EA1341818370477C
:1029000021B1028842F08002028004E002884FF682
:102910007F731A400280704721B1828842F004021E
:10292000828004E082884FF6FB731A4082807047F1
:1029300021B1828842F00802828004E082884FF64A
:10294000F7731A408280704721B1828842F00102F9
:10295000828004E082884FF6FE731A4082807047BE
:102960000A460021018B4FF6F7731940114301838A
:1029700070470A460021018B4FF2FF73194013067E
:1029800041EA1341018370470A460021818B4FF6CB
:10299000F77319401143818370470A460021818BE8
:1029A0004FF2FF731940130641EA134181837047C8
:1029B0000A460021018B4FF6FB7319401143018336
:1029C00070470A460021018B4FF6FF33194013066A
:1029D00041EA1341018370470A460021818B4FF67B
:1029E000FB7319401143818370470A460021818B94
:1029F0004FF6FF331940130641EA134181837047B4
:102A00000A460021018B4FF67F7319401143018361
:102A100070470A460021018BC1F30E01130641EAFB
:102A20001341018370470A460021818B4FF67F7363
:102A300019401143818370470A460021818BC1F3FD
:102A40000E01130641EA1341818370470A460021B3
:102A5000018C4FF6FD7319401143018470470A46FB
:102A60000021018C4FF6F773194011430184704720
:102A70000A460021018C4FF6DF731940130541EA25
:102A80001341018470470A460021018C4FF67F7381
:102A90001940130541EA1341018470470A46002199
:102AA000018C4FF6FF531940130641EA134101848C
:102AB00070470A460021018C4FF2FF73194013063C
:102AC00041EA1341018470470A460021018C4DF60A
:102AD000FF731940130741EA13410184704730B571
:102AE000002301248C40A3B2048CDD43ADB22C4002
:102AF0000484048C02FA01F5ADB22C43048430BD89
:102B000030B5002304248C40A3B2048CDD43ADB265
:102B10002C400484048C02FA01F5ADB22C430484E9
:102B200030BD70B50346002000241846183001253A
:102B30008D40ACB21D8CE643B6B235401D8409B160
:102B4000082909D100EB6100056825F070050560D2
:102B50000568154305600CE00D1FADB200EB650084
:102B6000056825F4E04505600568160645EA164542
:102B7000056070BD21B1028842F00202028004E0CB
:102B800002884FF6FD731A400280704721B1028817
:102B900042F00402028004E002884FF6FB731A4000
:102BA0000280704721B1828842F08002828004E076
:102BB00082884FF67F731A408280704702884FF6F2
:102BC000F7731A40028002880A43028070478288A5
:102BD0004FF68F731A40828082880A438280704742
:102BE00002894FF6F8731A40028102890A43028172
:102BF000704702894FF67F731A40028102890A43A7
:102C00000281704781847047818570478186704753
:102C10000187704781877047A0F84010704702888D
:102C20004FF6FF431A40028002880A430280704731
:102C30000146888E70470146088F70470146888F8D
:102C400070470146B1F8400070470146888C7047D4
:102C50000146088D704702460020138A0B4201D0BE
:102C6000012000E000207047CA430282704730B55F
:102C70000246002000230024158A05EA01039589F5
:102C800005EA010413B10CB1012000E0002030BDC1
:102C9000CA4302827047000010B50446FC488442D3
:102CA00009D101218803FFF7D1F800214FF48040BA
:102CB000FFF7CCF832E0F748844209D101214804FB
:102CC000FFF7D1F800214FF40030FFF7CCF825E0F2
:102CD000F148844209D101218804FFF7C4F800219A
:102CE0004FF48020FFF7BFF818E0EC48844209D188
:102CF0000121C804FFF7B7F800214FF40020FFF7C7
:102D0000B2F80BE0E648844208D101210805FFF73C
:102D1000AAF800214FF48010FFF7A5F810BD2DE9A7
:102D2000F04786B005460E460024A24600BFA146E5
:102D30000027B08900B100BF2F462C8A4CF6FF70E7
:102D40000440F08804432C82AC894EF6F310044012
:102D5000B08831890843718908430443AC81AC8A47
:102D60004FF6FF400440B0890443AC8201A8FEF74F
:102D7000E6FFC748874202D1DDF810A001E0DDF888
:102D80000CA0A88910F4004F08D00AEBCA0000EB91
:102D90000A1031684900B0FBF1F807E00AEBCA00FD
:102DA00000EB0A1031688900B0FBF1F86420B8FB31
:102DB000F0F004012009642101FB1089A88910F4B6
:102DC000004F08D0322000EBC900B0FBF1F000F05A
:102DD0000700044308E0322000EB09106421B0FB37
:102DE000F1F000F00F0004432C8106B0BDE8F0873D
:102DF0004FF41651016000218180C18001810C21B6
:102E0000418100218181704710B502460020108A5F
:102E10004FF2FF0318400B884C8823438C882343D0
:102E2000CC8823431843108210BD002101804180CB
:102E30008180C180704721B1828942F40052828131
:102E400004E082894DF6FF731A4082817047F0B525
:102E500003460024002600250020A1F510676A3FE4
:102E600000D100BF1846C1F3421401F01F0601272C
:102E700007FA06F5012C01D10C3004E0022C01D137
:102E8000103000E014301AB107682F43076002E0E9
:102E90000768AF430760F0BD10B51AB1838A0B43D2
:102EA000838204E0838ACC43A4B22340838210BD92
:102EB000028A4FF6F0731A400282028A0A430282A3
:102EC000704782894FF2FF731A40828182890A43D8
:102ED0008281704721B1828942F00202828104E03E
:102EE00082894FF6FD731A4082817047028A4FF63D
:102EF000DF731A400282028A0A430282704721B1BC
:102F0000028A42F48042028204E0028A4BF6FF7396
:102F10001A4002827047C1F308028280704701465E
:102F20008888C0F308007047818941F001018181E0
:102F30007047028BD2B20283028B42EA01220283E3
:102F40007047028B02F47F420283028B0A430283A2
:102F5000704721B1828A42F02002828204E0828A94
:102F60004FF6DF731A408282704721B1828A42F0A5
:102F70001002828204E0828A4FF6EF731A40828246
:102F8000704721B1828A42F00802828204E0828A7C
:102F90004FF6F7731A408282704721B1828942F45A
:102FA0000042828103E08289C2F30E02828170476F
:102FB00021B1828A42F40062828204E0828A4FF266
:102FC000FF731A4082827047828A4FF6FB731A4061
:102FD0008282828A0A438282704721B1828A42F0C9
:102FE0000202828204E0828A4FF6FD731A408282D6
:102FF000704702460020B1F5007F00D100BF138862
:103000000B4201D0012000E00020704701F4007263
:10301000B2F5007F00D100BFCA430280704770B58F
:1030200002460024002300250020A1F510666A3E18
:1030300000D100BFC1F3421501F01F03012606FABB
:1030400003F3012D02D19689334006E0022D02D10F
:10305000168A334001E0968A33400C12012606FAA4
:1030600004F41688344013B10CB1012000E00020B4
:1030700070BD10B500220023A1F510646A3C00D198
:1030800000BF0A1201249440A3B2DC43048010BDA7
:10309000003801400044004000480040004C00401F
:1030A0000050004010B50446BF48844208D10121B9
:1030B0008014FEF7CBFE0021A014FEF7C7FE16E039
:1030C000BA48844208D101210014FEF7CCFE002149
:1030D0002014FEF7C8FE0AE0B548844207D101215A
:1030E000C013FEF7C0FE0021E013FEF7BCFE10BDCA
:1030F00010B50022028802F441520B884C88234309
:103100008C882343CC8823430C8923434C89234355
:103110008C892343CC8923431A430280838B4FF24B
:10312000FF74234083830B8A038210BD2DE9F04F87
:1031300085B005460C464FF0000902274FF0000805
:103140004FF0010B0026B246A88B4FF24001084019
:10315000A88302202884B5F81C90A068022801D119
:1031600000BF36E0A08810B94FF0010B01E04FF02E
:10317000020B8E48854200D100E000BF6846FEF792
:10318000DEFDDDF800A0E088B0F5007F0AD14FEA4F
:103190001A2000EB80004000A168B0FBF1F0401D58
:1031A00086B20BE04FEA4B10BAFBF0F000EB800068
:1031B0004000A168B0FBF1F0401D86B20A20B6FBCA
:1031C000F0F606F00108A6EB0800C0F34F074FEA3F
:1031D0000828022F01DBFF2F02DD02274FF0000835
:1031E000E08840EA080038432884A088A189084381
:1031F000618808432188084340F4006040EA0909D7
:10320000A5F81C9005B0BDE8F08F00210180418039
:103210008180C180018141818181C1810721018239
:1032200070470021018041808180C180022181603E
:1032300000218181704721B1028842F04002028062
:1032400004E002884FF6BF731A400280704721B134
:10325000828B42F48062828304E0828B4FF6FF33DC
:103260001A408283704770B5002400230C11012599
:10327000A540ABB21AB185881D43858004E08588DE
:10328000DE43B6B23540858070BD10B51AB1838873
:103290000B43838004E08388CC43A4B22340838023
:1032A00010BD81817047014688897047A1F57E4233
:1032B000FF3A04D0028842F48072028004E002885F
:1032C0004FF6FF631A400280704721B1828842F0B6
:1032D0000402828004E082884FF6FB731A408280E9
:1032E000704702884FF2FF731A40028002880A4337
:1032F00002807047018841F480510180704721B1FC
:10330000028842F40052028004E002884DF6FF7306
:103310001A400280704702460020012901D0108B1C
:1033200000E0908A70470146088A7047B1F5804FE7
:1033300004D1028842F48042028004E002884BF605
:10334000FF731A40028070470246002013890B4227
:1033500001D0012000E000207047CA43028170477D
:10336000F0B50246002000240023002501F00F07DD
:103370000126BE40B4B20B1101269E40B3B296881E
:1033800006EA03051689264202D00DB1012000E0AD
:103390000020F0BD10B5002201F00F040123A3406E
:1033A0009AB2D343038110BD003001400038004081
:1033B000003C0040002400BF02E019490C55641C89
:1033C000402CFADBFEF732F800BF164800780128DF
:1033D000FBD100201349087000F09CF81620FDF77F
:1033E000DAFB0120FDF7CEFF40210F48FDF71DFE5F
:1033F0000120FDF7C7FF1A20FDF7CDFB0B20FDF7DD
:10340000E4FF1820FDF7C7FB0120FDF7BBFF0748CD
:10341000006880F001000649C1F88401D5E700008A
:10342000680100208A000020E801002084812242F7
:103430000080224210B55348006840F040005149D6
:10344000086020215048FDF70EFE0220FDF79AFF8C
:103450001820FDF7A0FB0220FDF794FF4B48006801
:1034600080F001004A49C1F890014748407802289D
:1034700017D14548C0790002464908804248007A81
:1034800009880843434908803F48C078424908807A
:103490003D488079AA2804D040480088401C3F4914
:1034A000088039484078032817D13748407A00020D
:1034B0003B4908803448807A0988084338490880A5
:1034C0003148C078374908802F488079AA2804D02D
:1034D00035480088401C344908802B48407804282F
:1034E00017D12948C07A0002304908802648007B5D
:1034F000098808432D4908802348C0782C49088052
:1035000021488079AA2804D02A480088401C2949EB
:10351000088010BD002000BF02E0274A1054401C64
:103520004028FADB0121244A11705170FF2191706B
:10353000224909880912D170204909881171402156
:103540005171AA219171704710B501211C48FFF7F4
:103550009FFB1C48006880F001000D49C1F88C01F8
:103560001648008800F10100144908804FF001005E
:103570001549087010BD10B501211448FFF788FBEC
:1035800010BD000014040140A801002090812242D7
:10359000008022428C000020980000209200002031
:1035A0008E0000209A00002094000020900000204F
:1035B0009C00002096000020E801002088000020E8
:1035C000000400408C8122428A0000200008004054
:1035D00070477047704770477047754600F028F88D
:1035E000AE4605006946534620F00700854618B0F0
:1035F00020B5FEF77DF8BDE820404FF000064FF003
:1036000000074FF000084FF0000B21F00701AC4617
:10361000ACE8C009ACE8C009ACE8C009ACE8C00936
:103620008D4670470446AFF300802046FCF7C9FD85
:103630000048704728020020004870472C020020F4
:1036400090EA010F48BF81F0004100F17682421AF2
:103650003CBF801A89184FEAD0524FF07F4C1CEAC9
:10366000410FA2EBD15318BF9CEA026F00F03B80E0
:103670004FF0004C4CEA00204CEA012121FA03FCF7
:1036800010EB0C0C1ED202F1FF325FEA1C2040EB63
:10369000C25038BF70471CF07F0F4FEA400C18BF74
:1036A000BCF17F4F38BF7047C3F12003994008BF7A
:1036B00020F00100BCF17F4F38BF7047A0F1C0403F
:1036C00000F024BA4FEA3C00000A40EBC25028BF89
:1036D0001CF0FF0F4FEA400CE6D018BFBCF17F4F43
:1036E00038BF7047EAE79CEA026F05D010EA5C0F2A
:1036F00008BF00F00040704710B500F0BAF900BFF5
:1037000064FBBE3E401058BFC0F14040491058BF56
:10371000C1F140418142EFF3008070474FF47F0CCC
:103720001CEAD0121EBF1CEAD11392EA0C0F93EAD6
:103730000C0F00F0858090EA010F48BF42F48072C0
:1037400040F4000C41F400002CF07F4120F07F4059
:1037500000B58142A2EB03020FF2081CACEB504E05
:10376000C0F100009EF800E04FEA4E0E00FB0EFC98
:1037700038BF49004FEA2C1C02F5FA020CFB0EF38D
:103780004FEACE1E4FEA112C4FEAC1210EEB635EC9
:1037900042EB22420EFB0CFC4FEA1C5300FB0311D0
:1037A0004FEA112C4FEA01310EFB0CFC4FEADC4CC6
:1037B00000FB0C11C14228BF09184CEB03335DF824
:1037C00004EB10EB410143EBC250B2F57C0F38BF64
:1037D000704729D512F0F00F1CBF00F1C04000F077
:1037E00000407047008182838485868788898B8C1E
:1037F0008D8E8F919293959697999A9C9D9FA0A25A
:10380000A3A5A7A8AAACAEB0B2B3B5B7B9BCBEC0A9
:10381000C2C5C7C9CCCED1D4D7D9DCDFE2E6E9EC4A
:10382000F0F3F7FAFE0000004FEA400C0CF1807C48
:10383000BCF17E4F28BF7047B0F1C04000F066B9C0
:1038400090EA010F0CEAD11348BF42F4807262453E
:1038500038BF634507D213F47F0F16D080EA01000A
:1038600000F00040704710B500F003F9097EFC3EFF
:1038700000F005B880EA010000F00040704780EADF
:10388000010000F0004000F041B912F47F0F04BFC6
:103890000248704780EA010000F038B90000C07F9C
:1038A000C10DD1F19E0206DB4FEA002343F0004335
:1038B00023FA02F07047004207D54FEA4001B1F108
:1038C000FE4F02D24FF00000704710B500F0D1F863
:1038D00049922480002070476FEA20007047000062
:1038E000B0FA80F310FA03F2C3F19D030AD0D905B0
:1038F00001EB1220530638BF704700F1010008BFEA
:1039000020F001007047000050EA010C00F1138024
:103910001CF5000F58BFBCF5000F01D4884270475A
:1039200007D710F5000F58BF11F5000F15D48842C6
:103930007047894270471CF5000F04D5BCF5000F95
:10394000F7D5814270474FF0807C1CEB400F38BFA9
:103950001CEB410F01D28142704710B500F089F88D
:10396000922449004FF000504FF08051FFF7CABE3B
:103970004FF47F0C1CEAD0121EBF1CEAD11392EA4E
:103980000C0F93EA0C0F00F0478090EA010F48BF3C
:1039900042F480724FF0004C4CEA00204CEA0121C6
:1039A00002EB0302A0FB0113A2F50002002918BFDD
:1039B00043F001035B0028BF4FEA330342EB22428E
:1039C0005FEA132C4CEBC2502EBFBCEB436FB2F539
:1039D0007C0F70474FEA036CBCF1004F08BF20F02A
:1039E0000100B2F57C0F38BF70470BD582F0FF02A3
:1039F00012F5803FC8BF704700F1C040D8BF00F04B
:103A00000040704700F5000C5FEA4C0C48BF70475F
:103A1000B0F1C04000F07AB890EA010F0CEAD1137F
:103A200048BF42F48072624538BF634504D280EAE1
:103A3000010000F00040704710B500F01AF800BF18
:103A40008900013E00F007B800F009B85FEA410CB8
:103A50005FEA1C6C08D080EA010000F057B85FEA0A
:103A6000400C5FEA1C6CF6D14FF00040A0F58000DE
:103A700070470EF1020E2EF0030E5EF8044B244246
:103A800004D44FEA4102B2F17F4F11D84FEA40030C
:103A9000B3F17F4F0CD80ED14FEAD07CB2F17F4FFB
:103AA0000CEB4C0C0CF1020C08BF4CEBD17C04E08D
:103AB0004FF0080C01E04FEAD17C0CEB4C0324FAE8
:103AC00003F404F00704B4F1040C06D20EEB840CEA
:103AD000BDE810404CF0010C6047DFE80CF007082F
:103AE00002024FF00040A0F5800010BD08464200E1
:103AF00018BFD2F1807288BF00F0004010BD10B531
:103B0000FFF79AFD4FF00001016010BDFF2141EA6F
:103B1000D050C005704780F0004090EA010F7FF55B
:103B200096AD81F0004100F008B8000090EA010F66
:103B300048BF81F000413FF58AAD421A04D882F0B7
:103B40000042A0EB020011444FEAD0524FF07F4CEC
:103B50001CEA410FA2EBD15318BF9CEA026F4AD076
:103B60004FF0004C4CEA00204CEA012121FA03FC02
:103B7000B0EB0C0C0FD412F0FE0F36D05FEA4C0005
:103B80001DD5001240EBC25038BF70471CF03F0FEC
:103B900018BF70470BE0A2F101025FEA1C2040EB66
:103BA000C25038BF70471CF07F0F18BF7047C3F179
:103BB0002003994014BF401E20F001007047800888
:103BC0004FEA122308BF7047B0FA80FCA2EB0C0248
:103BD000CCF1280C60FA0CF093EA122F04BF00EB32
:103BE000C25070474FEAC3707047130A5FEADC1097
:103BF00008BF7047F6E79CEA026F04D010EA5C0F3A
:103C000008BF0020704710B5FFF733FF40DFF63ED6
:103C100081F00040704720001D0A04600000200A67
:103C20001D000000110000000000DC18097000C435
:103C300000084548C02030F5000000000711700161
:103C400001020F40C02A410C81D204001E001F0453
:103C50003F005F1500005F0300880000C000000007
:103C6000803C000800000020A00000006C0100085B
:103C7000203D0008A0000020E8070000880100089F
:103C800000A24A040000000000000000010203043A
:103C900006070809010000000000FF83DF17320952
:103CA0004ED1E7CD8A91C6D5C4C44021184E558661
:103CB000F4DC8A15A7EC92DF93533018CA34BFA204
:103CC000C759678FBA0D6DD82D7D540A5797703933
:103CD000D27AEA243385ED9A1DE00000000000004E
:103CE00000000000000000000000000000000000D4
:103CF00000000000000000000102030401020304B0
:103D00000607080902040608000000000000000081
:103D100000000000000000000000000000000000A3
:0400000508000131BD
:00000001FF
