:020000040800F2
:10000000E80E0020591A0008CF010008D1010008AD
:10001000D5010008D9010008DD010008000000003A
:10002000000000000000000000000000E1010008E6
:10003000E301000800000000E5010008E7010008F6
:10004000731A0008731A0008731A0008731A00085C
:10005000731A0008731A0008731A0008731A00084C
:10006000731A000893160008731A0008731A000820
:10007000731A0008731A0008731A0008731A00082C
:10008000731A0008731A0008731A0008731A00081C
:10009000731A0008731A0008731A00082F16000854
:1000A000731A0008731A0008731A0008731A0008FC
:1000B000731A0008BF15000819160008731A000803
:1000C000731A0008731A0008731A0008731A0008DC
:1000D000731A000827190008731A0008731A000819
:1000E000731A0008731A0008731A0008731A0008BC
:1000F000731A0008731A0008731A0008731A0008AC
:10010000731A0008731A0008731A0008731A00089B
:10011000731A0008731A0008731A0008731A00088B
:10012000731A0008731A0008731A0008731A00087B
:1001300000F002F800F03CF80AA090E8000C8244BD
:100140008344AAF10107DA4501D100F031F8AFF29A
:10015000090EBAE80F0013F0010F18BFFB1A43F0A5
:1001600001031847B8410000D8410000103A24BFED
:1001700078C878C1FAD8520724BF30C830C144BF0C
:1001800004680C607047000000230024002500264E
:10019000103A28BF78C1FBD8520728BF30C148BFEA
:1001A0000B6070471FB504F008F81FBD10B510BDF7
:1001B00003F05EFD1146FFF7F5FF03F0BDFA03F013
:1001C0008FFD03B4FFF7F2FF03BC01F027FB70477C
:1001D00000BFFEE700BFFEE700BFFEE700BFFEE78F
:1001E000704770477047704700210020674A1268C7
:1001F00042F48032654B1A6000BF644A126802F410
:100200000030491C10B9B1F5A06FF6D15F4A1268F1
:1002100012F4003F01D0012000E00020012842D16B
:100220005B4A126842F01002594B1A601A46126873
:1002300022F003021A601A46126842F002021A60A3
:10024000524A5268514B5A601A4652685A601A46CE
:10025000526842F480625A601A46526822F47C1254
:100260005A601A46526842F4E8125A601A461268F6
:1002700042F080721A6000BF444A126812F0007F98
:10028000FAD0424A526822F00302404B5A601A46A2
:10029000526842F002025A6000BF3C4A526802F0C3
:1002A0000C02082AF9D1704710B5FFF79DFF10BD69
:1002B00010B53648006840F001003449086008462F
:1002C000406834490840314948600846006832496E
:1002D00008402E4908600846006820F48020086025
:1002E0000846406820F4FE0048604FF41F00886014
:1002F000FFF7DAFF4FF000602849086010BD10B525
:10030000002100200022214B5B6803F00C0121B189
:10031000042906D0082928D107E0214B214C23606D
:1003200027E01F4B1F4C236023E0184B5B6803F44E
:100330007010164B5B6803F48032022303EB90408D
:1003400022B9194B4343174C23600DE00F4B5B68F8
:1003500013F4003F04D0144B4343124C236003E0DA
:100360000F4B43430F4C236003E00D4B0D4C2360B8
:1003700000BF00BF054B5B68C3F303130B4CE15C8C
:10038000084B1B68CB40074C236010BD0010024097
:10039000002002400000FFF8FFFFF6FE08ED00E03D
:1003A00000127A000000002000093D000400002037
:1003B0007FB505460C460121022001F0FCFEADF898
:1003C0000850ADF804400020ADF80A00ADF8060072
:1003D00001A9244802F01EF801221146214802F02A
:1003E0006EFB1D208DF8000002208DF8010000201A
:1003F0008DF8020001208DF80300684601F051FBE2
:100400000121184802F036FB7FBD7FB505460C463A
:100410000121042001F0CFFEADF80850ADF80440F2
:100420000020ADF80A00ADF8060001A90E4801F061
:10043000F1FF012211460C4802F041FB1E208DF80D
:10044000000001208DF8010000208DF8020001203D
:100450008DF80300684601F024FB0121024802F0F8
:1004600009FB7FBD000400400008004008B50121E1
:10047000242001F093FE0120ADF8000010208DF83B
:10048000030003208DF8020069464E4801F0D2FBBC
:1004900001214C4801F079FC0220ADF80000102049
:1004A0008DF8030003208DF802006946454801F0ED
:1004B000C1FB0221434801F068FC0420ADF80000B4
:1004C00010208DF8030003208DF8020069463D4896
:1004D00001F0B0FB04213B4801F057FC0820ADF8C7
:1004E000000010208DF8030003208DF802006946FB
:1004F000344801F09FFB0821324801F046FC1020EF
:10050000ADF800008DF8030003208DF80200694665
:100510002C4801F08FFB10212A4801F036FC2020E6
:10052000ADF8000010208DF8030003208DF80200C4
:100530006946244801F07EFB2021224801F025FC79
:100540004020ADF8000010208DF8030003208DF846
:10055000020069461B4801F06DFB4021194801F07B
:1005600014FC0220ADF8000004208DF80300694659
:10057000154801F05FFB4FF48070ADF800001020CB
:100580008DF8030003208DF8020069460D4801F044
:1005900051FB00200D4908604FF40070ADF80000D9
:1005A0004FF010008DF803004FF003008DF80200AB
:1005B0006946044801F03EFB00200549C1F8A4014A
:1005C00008BD00000014014000100140A08122423B
:1005D0000080224208B50121342001F0DFFD2020F7
:1005E000ADF8000048208DF803006946304801F05E
:1005F00021FB4020ADF8000048208DF8030069463B
:100600002C4801F017FB0120ADF8000028208DF8E0
:1006100003006946284801F00DFB08BD10B50446EB
:1006200014B10120254908702448007858B32021CE
:100630001F4801F090FB50B140211E4801F08BFB98
:1006400028B101211C4801F086FB01281BD10A209A
:1006500001F095F80020194908700121164801F0B1
:100660007AFB012801D1032010BD2021104801F0A0
:1006700072FB08B90120F7E740210E4801F06BFB3F
:10068000A0B90220F0E701210B4801F064FB68B932
:100690002021074801F05FFB012807D140210548D0
:1006A00001F059FB012801D1044908700020DBE763
:1006B0000010014000140140000801401400002017
:1006C000F448006820F47040F24908600846006869
:1006D00040F4004008607047EE48006820F4704025
:1006E000EC4908600846006840F4405008607047D4
:1006F00008B501210C2001F051FD1020ADF80000DB
:1007000048208DF803006946E24801F093FA202062
:10071000ADF8000010208DF8030003208DF80200D2
:100720006946DC4801F086FA4020ADF80000482018
:100730008DF803006946D74801F07CFA4020ADF8F7
:10074000000048208DF803006946D34801F072FA92
:100750000120D24908604FF00000D149C1F894014E
:1007600008BD70B50546002405E0601CC4B2C82C65
:1007700001DD002070BD0221CA4802F0A7FF002859
:10078000F3D02946C74802F04EFF002400BF0121E4
:10079000C44802F09BFF0028F9D0601CC4B2C82CEA
:1007A00001DD0020E6E7BF4802F03FFFC0B2E1E70D
:1007B00000B587B0012141F2040001F0EFFC702088
:1007C000ADF8180018208DF81B0003208DF81A00D2
:1007D00006A9B04801F02EFA7021AE4801F0D5FA12
:1007E0000020ADF80400ADF80600ADF808000220C6
:1007F000ADF80A000120ADF80C004002ADF80E0083
:100800003820ADF810000020ADF812000720ADF838
:10081000140001A9A44802F02DFE0121A24802F013
:10082000CCFEFF20FFF79DFF07B000BD00B587B0ED
:100830000121082001F0B2FC0121880301F0BBFC7A
:100840004FF46040ADF8180018208DF81B0003200D
:100850008DF81A0006A9904801F0ECF94FF46041B8
:100860008D4801F092FA0020ADF804004FF4827038
:10087000ADF806000020ADF808000220ADF80A002F
:100880000120ADF80C004002ADF80E001820ADF8C4
:1008900010000020ADF812000720ADF8140001A9E7
:1008A000804802F0E7FD01217E4802F086FEFF202D
:1008B000FFF757FF07B000BD10B504467948008820
:1008C0004FF6C771084077490880084600882043E2
:1008D00008800121734802F070FE10BD10B5044677
:1008E000714800884FF6C77108406F490880084674
:1008F00000882043088001216B4802F05EFE10BD95
:1009000070B50546002405E0601CC4B2C82C01DDAA
:10091000002070BD0221644802F0D8FE0028F3D008
:100920002946614802F07FFE002405E0601CC4B245
:10093000C82C01DD0020ECE701215B4802F0C6FE77
:100940000028F3D0584802F070FEC0B2E1E770B55D
:10095000044600251DE014F0800F03D00120534908
:10096000086002E00020514908604FF0010000F0EB
:10097000E3FE01204E49086000F0DEFE00204849F9
:10098000C1F894016006040E012000F0D5FE681C39
:10099000C5B2082DDFDB70BD70B5044600204349A9
:1009A000086005461DE014F4004F03D001203F49C4
:1009B000086002E000203D4908604FF0010000F0AF
:1009C000BBFE01203A49086000F0B6FE0020344921
:1009D000C1F894016004040C012000F0ADFE681C15
:1009E000C5B2102DDFDB70BD70B5002400202F498B
:1009F0000860FFF765FE00251CE04021254801F056
:100A0000AAF920B1012040EA440084B201E0600468
:100A1000040C012000F090FE01202549086000F040
:100A20008BFE00201E49C1F89401012000F084FED5
:100A3000681CC5B2102DE0DBFFF74EFE204670BDEE
:100A400070B50024FFF73CFE00251CE04021114852
:100A500001F081F920B1012040EA4400C4B201E074
:100A60006006040E012000F067FE012010490860B6
:100A700000F062FE00200A49C1F89401012000F054
:100A80005BFE681CC5B2082DE0DBFFF725FE2046A3
:100A900070BD000000080140000C0140900121429F
:100AA00000002142003800400030014098012142FE
:100AB0009401214270B504460D460020FE490860AD
:100AC00000BF2046FFF743FF0A2000F035FE28460E
:100AD000FFF762FF0A2000F02FFE0120F749C1F85E
:100AE000900170BD70B504460020F349086044F0E1
:100AF00080042046FFF72BFF0A2000F01DFEFFF7C1
:100B000073FF05460A2000F017FE0120EB49C1F8EB
:100B10009001284670BD70B504460E462546E8484B
:100B2000C08940EA053085B229460720FFF7C2FF99
:100B300031460820FFF7BEFF70BD70B504460E4673
:100B40002546DF48C08940EAC51529460720FFF73A
:100B5000B1FF31460920FFF7ADFF70BD70B5044607
:100B60002546D748C08940EA053085B22946072086
:100B7000FFF7A0FF0820FFF7B5FF0546284670BD28
:100B800000BF1FE0CF48006880F00100CE49C1F8E7
:100B900084010846D0F8880180F00100C1F888017E
:100BA0000846D0F88C0180F00100C1F88C0108469D
:100BB000D0F8900180F00100C1F890014FF47A70F4
:100BC00000F0DDFDDEE710B504460020BA490860FC
:100BD0002046FFF7BCFE0120B849C1F8900110BDC6
:100BE00070B504461420FFF7EEFFB848408B00F4C0
:100BF0007F45601E284381B20D20FFF78CFFB3486C
:100C0000808A4CF2FF0100EA010529460A20FFF71D
:100C100082FF002070BD70B5002407E0A84830F8BE
:100C200014102046FFF746FF601CC4B2082CF5DB09
:100C30000A2407E0A24830F814102046FFF73AFFD4
:100C4000601CC4B2102CF5DB002407E09F4830F88C
:100C500014102046FFF75FFF601CC4B2102CF5DBB8
:100C6000002407E09A4830F814102046FFF765FF8B
:100C7000601CC4B2052CF5DB0C20FFF7B1FF00208F
:100C8000FFF730FF05468E480088A84201D0FFF7E5
:100C900077FF70BD2DE9F0418948C08B40F6020214
:100CA00040EA02010F20FFF705FF00BF0F20FFF70A
:100CB00019FF044640F602000442F7D10E20FFF768
:100CC00011FF0446C4F300150DB1FFF759FF0A20C8
:100CD000FFF744FF0446C4F300170FB1FFF750FFBE
:100CE0004FF498410C20FFF7E5FE4FF478410220C5
:100CF000FFF711FF7548008840F460410020FFF7BE
:100D00000AFF6F48C08B40F480510F20FFF7D2FEDE
:100D100000BF0F20FFF7E6FE044614F4805FF8D111
:100D20006748018B0C20FFF7C5FE684881880220C8
:100D3000FFF7F1FE654801880020FFF7ECFE6048F0
:100D4000C08B40F004010F20FFF7B4FE00BF0F205E
:100D5000FFF7C8FE044614F0040FF8D10E20FFF789
:100D6000C1FE0446C4F300260EB1FFF709FF0020C0
:100D7000BDE8F0812DE9F05F06465649304603F0A4
:100D80002BF88246504603F0E9F8C4B2204603F03F
:100D900005F983464FF07E5103F048F981465146EC
:100DA00003F017FA07464FF08F41384603F03EF93B
:100DB000814603F0D3F81FFA80F81420FFF703FFF1
:100DC0003F48C088C0F30E0529460320FFF772FE96
:100DD0003B488089C0F30B0529460620FFF76AFED1
:100DE0003D49304603F0EEF806D2354800894EF60C
:100DF000FF7100EA010503E03148008940F48055A5
:100E000029460420FFF756FE2D48408800F47F4510
:100E100045EA04010120FFF74DFE41460220FFF79D
:100E200049FE00210220FFF788FEBDE8F09F70B563
:100E3000FF254FF6FF762548808840F010010220FC
:100E4000FFF769FE00BF2148C08B40F001010F2071
:100E5000FFF761FE00BF0F20FFF780FE00F00104E6
:100E600024B13000A6F101018EB2F4D10F20FFF7BA
:100E700075FEC0F34804BA2C03DDC62C01DA052048
:100E800070BD2800A5F10101CDB2DCD10420F7E747
:100E900010B50C48006880F001000B49C1F88401CE
:100EA0000846D0F8880180F00100C1F888010846A2
:100EB000D0F88C0112E00000900121420000214294
:100EC000D24200088481224200802242F24200087D
:100ED00012430008CDCC4C410000574480F0010083
:100EE000C1F88C010846D0F8900180F00100FE495D
:100EF00008604FF0640000F042FCFC48D0F8840128
:100F000080F00100F949C1F884010846D0F8880151
:100F100080F00100C1F888010846D0F88C0180F00B
:100F20000100C1F88C010846D0F8900180F0010062
:100F3000ED4908604FF0640000F021FCEB48D0F868
:100F4000840180F00100E949C1F884010846D0F825
:100F5000880180F00100C1F888010846D0F88C01B2
:100F600080F00100C1F88C010846D0F8900180F0B3
:100F70000100DD4908604FF0640000F000FCDB4830
:100F8000D0F8840180F00100D849C1F884010846F6
:100F9000D0F8880180F00100C1F888010846D0F837
:100FA0008C0180F00100C1F88C010846D0F8900156
:100FB00080F00100C1F8900110BD10B5044600207A
:100FC000CB4908604FF02000FFF7C1FC200EFFF76F
:100FD000BEFCC4F30740FFF7BAFCC4F30720FFF7D9
:100FE000B6FCE0B2FFF7B3FC0120C249C1F89001A2
:100FF000002010BD10B504460120BD4908604FF027
:101000000000BC49C1F894014FF00100BA490860E2
:101010004FF07000FFF7D7FD0A2000F0B0FBFFF79C
:10102000FAFD0A2000F0ABFBB448FFF7C6FF012031
:1010300000F0A5FB2046FFF79DFE0A2000F09FFB75
:10104000FFF728FEFFF724FF1420FFF7BCFD012067
:1010500010BD70B50024AA48C0894FF2CF71084076
:10106000044321460720FFF725FD0920FFF73AFD3D
:101070000546284670BD10B504461420FFF7A3FDB1
:10108000142000F07CFB9E48C0894FF6FE7200EAF7
:1010900002010720FFF70EFD322C2AD004DC022CBF
:1010A00007D00A2C44D114E0642C31D0962C3FD1C7
:1010B0003DE046F221610020FFF7FCFC41F6D4013F
:1010C0000A20FFF7F7FC4FF205510020FFF723FD40
:1010D0003AE041F221210020FFF7ECFC41F6D40177
:1010E0000A20FFF7E7FC4FF206710020FFF713FD1F
:1010F0002AE023210020FFF7DDFC41F6D0010A2081
:10110000FFF7D8FC4FF206610020FFF704FD1BE05B
:1011100021210020FFF7CEFC41F6D4010A20FFF781
:10112000C9FC4FF206710020FFF7F5FC0CE00BE064
:101130007348C08940F001010720FFF7BBFC142071
:1011400000F01DFB012010BD00BF6D48C08940F0BC
:1011500001010720FFF7AEFC142000F010FB002077
:10116000F1E710B50446022C02D0042C1BD109E093
:101170006348808B4BF6FB7200EA02010E20FFF7FA
:10118000CAFC12E05E48808B4BF6FB7200EA02015B
:101190000E20FFF7C0FC5A48808B40F004010E205F
:1011A000FFF7B9FC01E0012010BD00BF0020FBE704
:1011B00070B504460D466020FFF705FD012000F0E4
:1011C000DEFA00204A4908604FF04000FFF7BFFBFD
:1011D00003E014F8010BFFF7BAFB2800A5F10101A9
:1011E000CDB2F6D101204249086070BD70B5044609
:1011F0000D46E020FFF7E7FC022000F09DFA0020FA
:101200003B4908604FF0C000FFF7A1FB03E0FFF788
:1012100017FC04F8010B2800A5F10101CDB2F6D1AD
:1012200001203349086070BD70B50446022C01DB13
:10123000072C01DD012070BD1420FFF7C4FC3048ED
:1012400000894FF6F07100EA010545EA440040F0DC
:1012500001010420FFF75FFC0A2000F06DFA012075
:10126000FFF77CFCC0F3C01080F00100E3E770B52D
:101270004FF6FF751820FFF7A6FC2148008B4FF6AC
:10128000FF6200EA02010C20FFF714FC0F20FFF7B9
:1012900029FC40F0010631460F20FFF70BFC00BF90
:1012A0000F20FFF71FFC00F001042800A5F1010149
:1012B0008DB201D0002CF3D1002D04DD0C20FFF7FE
:1012C00011FCC4B200E000241420FFF77CFC0120D4
:1012D00000F032FA1620FFF776FC012000F02CFA1D
:1012E0001820FFF770FC0DE090812242008022421E
:1012F0009001214200002142980121428CC57534A1
:10130000D2420008204670BD10B5FFF790FD0428BA
:1013100000D110BD1420FFF756FC45210820FFF72F
:10132000FAFB40F27F210120FFF7F5FB7448408B68
:1013300040F480610D20FFF7BDFB7148C08B40F485
:1013400000710F20FFF7B6FB0020E2E710B5142074
:10135000FFF739FC45210820FFF7DDFB4FF605417B
:101360000120FFF7D8FBFFF762FD042800D110BD74
:101370006448808840F010010220FFF7CCFB6048F1
:10138000C08B40F400710F20FFF794FB0020EEE7C4
:1013900010B51420FFF717FC4D210820FFF7BBFB09
:1013A0004FF605410120FFF7B6FBFFF740FD04288B
:1013B00000D110BD5348808840F030010220FFF773
:1013C000AAFB4F48C08B40F400710F20FFF772FB5F
:1013D0000020EEE770B5044625011420FFF7F3FB6B
:1013E00029460220FFF7A9FB70BD70B505464648A7
:1013F00000884FF6807100EA01041420FFF7E3FB38
:10140000052000F0BCF9092D3CD2DFE805F0050B02
:1014100011171D23292F350044F001010020FFF78B
:101420008CFB34E044F009010020FFF786FB2EE03E
:1014300044F00A010020FFF780FB28E044F061013E
:101440000020FFF77AFB22E044F02A010020FFF79A
:1014500074FB1CE044F01C010020FFF76EFB16E05B
:1014600044F026010020FFF768FB10E044F03E0145
:101470000020FFF762FB0AE044F05F010020FFF765
:101480005CFB04E0052000F07AF9012070BD00BF8C
:10149000052000F074F90020F8E710B51420FFF7DC
:1014A00092FB642000F048F91620FFF78CFB6420C3
:1014B00000F042F91820FFF786FB642000F03CF9A9
:1014C00010BD10B50120114908604FF01600FFF75C
:1014D0007AFB052000F030F90C210D48FFF768FE7B
:1014E000052000F029F91A20FFF76DFB00BF02214B
:1014F000084800F030FC0028F9D10449086010BD0C
:10150000D2420008F242000812430008A0812242A1
:1015100074000020001001400EB50121084600F0C3
:101520003DFE0621012000F099FC402001900020A2
:101530008DF8080008208DF8090001208DF80A00B8
:1015400001A800F009FA17208DF8000000208DF89E
:1015500001008DF8020001208DF80300684600F0BC
:10156000A0FA1620FFF72FFB022000F0E5F8182064
:10157000FFF729FB022000F0DFF80321022000F032
:101580006DFC0820019000208DF8080008208DF8DF
:10159000090001208DF80A0001A800F0DDF90920FA
:1015A0008DF8000003208DF8010000208DF8020066
:1015B00001208DF80300684600F073FA0EBD10B5E7
:1015C0000121464801F026FD02F013F900204449AC
:1015D000088044480068401C42490860084600688A
:1015E000B0F5FA6F17DD1420FFF7EDFA012000F0D7
:1015F000A3F81620FFF7E7FA012000F09DF8182065
:10160000FFF7E1FA012000F097F800203549086063
:1016100035A002F0EFFA10BD10B50121354801F0F8
:10162000F9FC2F480088401C2D49088010BD10B5DA
:101630003148006840F040002F4908600C212F48D5
:10164000FFF7D4FDFFF729FF00202649086002F0CC
:101650003CFAE8B12A48006880F001002949C1F845
:101660008801264802F02CFA022804D0042806D06B
:1016700005280CD107E0072002F0EAF807E009206E
:1016800002F0E6F803E00B2002F0E2F800BF00BF32
:1016900010BD1948006840F00800174908601A4852
:1016A0000078FE2802D100201749087016480078FB
:1016B000401C15490870087800EBD0714910B0EB58
:1016C000410103D101201149087002E000200F49B7
:1016D0000870704772B6704762B6704700040040E9
:1016E0006800002018000020726573746172742015
:1016F0000D0A000000080040140401408000002092
:1017000088812242008022421D0000206A000020C1
:1017100010B56FF0040000F00FFA2A4800682A495B
:10172000B0FBF1F029490870084600784FF47A714F
:1017300048432749088010BD0146244A12784A438D
:101740004FF0E0235A6100229A611A46126942F072
:1017500001021A6100BF4FF0E022106910F0010F82
:1017600002D010F4803FF6D04FF0E022126922F050
:1017700001024FF0E0231A6100229A61704701468E
:10178000134A12884A434FF0E0235A6100229A61BB
:101790001A46126942F001021A6100BF4FF0E022BE
:1017A000106910F0010F02D010F4803FF6D04FF016
:1017B000E022126922F001024FF0E0231A610022B8
:1017C0009A6170470000002000127A001E0000207D
:1017D0002000002010B54FF4806000F05DF910BDCE
:1017E00010B5FFF795FFFFF7F5FF00F02AF8FEF7B9
:1017F0003DFEFEF7EFFEFEF77BFF0748FFF7FAFB23
:1018000041F61F4141F28730FEF7D2FDFFF784FE1B
:1018100002F010F810BD00002100EB43014600BFAC
:10182000704770B504460D4600BF4021414801F0A5
:10183000A2FD0028F9D0E1B23E4801F02EFD20467D
:1018400070BD00B587B00121880300F0A7FC4FF4FC
:10185000E13003900020ADF81000ADF81200ADF8B3
:101860001400ADF818000C20ADF8160003A931489B
:1018700001F017FC01212F4801F09FFC012240F2EA
:1018800025512C4801F0A5FC0121042000F086FC24
:101890004FF40070ADF8080003208DF80A001820FE
:1018A0008DF80B0002A9244800F0C4F94FF48060C1
:1018B000ADF8080003208DF80A0004208DF80B0015
:1018C00002A91D4800F0B6F94FF4A06000F0E4F85A
:1018D00025208DF8040003208DF8050002208DF8E6
:1018E000060001208DF8070001A800F0DAF807B023
:1018F00000BD10B5044621460E4801F0CEFC00BFE5
:1019000040210C4801F037FD0028F9D010BD70B51A
:1019100005460E46002403E0285DFFF7EAFF641C3D
:10192000B442F9DB70BD10B540F22551014801F019
:1019300038FD10BD00380140000801400020444936
:101940000860091D0860091D0860091D08604148FC
:101950003F4914310860704700213D498279002ACF
:101960003AD00A46126803689A430B461A600A1D69
:10197000126803689A430B1D1A60027911440A68C1
:1019800003681A430A60324A0832126803689A43AD
:101990002F4B08331A601A1D126803689A432C4BA8
:1019A0000C331A604279102A0ED11A1F126803688C
:1019B0001A43274B08331A601A1D126803681A432A
:1019C000234B0C331A600DE02149427911440A6817
:1019D00003681A430A6005E0027911440A68036843
:1019E0009A430A6070470021016001710C21417126
:1019F0000021817170471649103109680143144A6A
:101A000010321160704701460020114A14321268EA
:101A10000A4201D0012000E0002070470C49143137
:101A200008607047014600200022094B1B6803EA4A
:101A30000102074B14331B680B4202D00AB101208C
:101A400000E0002070470249143108607047000030
:101A500000040140FFFF0F00094880470948004784
:101A6000FEE7FEE7FEE7FEE7FEE7FEE7FEE7FEE74E
:101A7000FEE7FEE704480549054A064B70470000AB
:101A8000B102000831010008E8080020E80E00203B
:101A9000E80A0020E80A002031490143314A116078
:101AA000704770B5002100230F22C4780CB32D4C71
:101AB000246804F4E064C4F5E064210AC1F104037D
:101AC000CA40447804FA03F18478144021430901A0
:101AD000254C0678A155047804F01F050124AC407C
:101AE00005786D114FF0E02606EB8505C5F800413D
:101AF00009E0047804F01F050124AC401B4D067872
:101B0000761145F8264070BD194A0A400243154B2C
:101B10001B1F1A60704739B1124A121D1268024326
:101B2000104B1B1D1A6006E00E4A121D12688243FC
:101B30000C4B1B1D1A607047042808D14FF0E021A0
:101B4000096941F004014FF0E022116107E04FF014
:101B5000E021096921F004014FF0E0221161704792
:101B60000000FA050CED00E000E400E080E100E098
:101B700080FFFF1F10B50446CA48844208D10121E6
:101B8000042000F025FB0021042000F021FB46E0AA
:101B9000C548844208D10121082000F019FB00212A
:101BA000082000F015FB3AE0C048844208D101212A
:101BB000102000F00DFB0021102000F009FB2EE0AA
:101BC000BB48844208D10121202000F001FB002104
:101BD000202000F0FDFA22E0B648844208D101211D
:101BE000402000F0F5FA0021402000F0F1FA16E064
:101BF000B148844208D10121802000F0E9FA002197
:101C0000802000F0E5FA0AE0AC48844207D10121C7
:101C1000801500F0DDFA0021A01500F0D9FA10BD02
:101C200010B50121084600F0D3FA0021012000F090
:101C3000CFFA10BD2DE9F041024600250026002014
:101C400000230024002791F803C00CF00F0591F841
:101C500003C01CF0100F03D091F802C04CEA050538
:101C6000B1F800C01CF0FF0F31D0146800202BE049
:101C70004FF0010C0CFA00F3B1F800C00CEA0306B7
:101C80009E4220D183004FF00F0C0CFA03F7BC43A7
:101C900005FA03FC4CEA040491F803C0BCF1280FD8
:101CA00006D14FF0010C0CFA00FCC2F814C00AE097
:101CB00091F803C0BCF1480F05D14FF0010C0CFAAC
:101CC00000FCC2F810C0401C0828D1D31460B1F841
:101CD00000C0BCF1FF0F34DD546800202EE000F19D
:101CE000080C4FF0010808FA0CF3B1F800C00CEA38
:101CF00003069E4221D183004FF00F0C0CFA03F72C
:101D0000BC4305FA03FC4CEA040491F803C0BCF19F
:101D1000280F05D100F1080C08FA0CF8C2F814805D
:101D200091F803C0BCF1480F07D100F1080C4FF047
:101D3000010808FA0CF8C2F81080401C0828CED31D
:101D40005460BDE8F0814FF6FF710180022181707F
:101D50000421C17070470246002093680B4201D0F5
:101D6000012000E0002070470146886880B270477B
:101D700002460020D3680B4201D0012000E0002081
:101D800070470146C86880B2704701617047416181
:101D900070470AB1016100E041617047C16070475E
:101DA0004FF480320A438261816182618269826973
:101DB000704702460020424B18684FF68073184067
:101DC00040EA021008433E4B186070473D49C86125
:101DD0007047F0B50A46002300240021002500F0DA
:101DE0000046B6F1004F02D1354EF16901E0344EA4
:101DF0007168C0F3034583B200F44016B6F5401F86
:101E000008D121F070612E4E766826F070662C4F56
:101E10007E6012E000F48016B6F5801F06D103261E
:101E200006FA05F4A14341F0706106E0460D360163
:101E300003FA06F6B14341F0706122B1460D360156
:101E400003FA06F6314300F00046B6F1004F02D126
:101E50001B4EF16101E01A4E7160F0BD30B50022F9
:101E60008B071C0F0F2303FA04F2154B08338C1059
:101E700053F824309343124C08348D1044F8253025
:101E800023468C1053F824308C07240F00FA04F4F6
:101E900023430B4C08348D1044F8253030BD0A49DB
:101EA0000860704700080140000C0140001001402C
:101EB0000014014000180140001C014000200140B6
:101EC0000000014000002042DC002042DC480068A5
:101ED00040F00100DA49086008464068D9490840E6
:101EE000D749486008460068D7490840D449086087
:101EF0000846006820F4802008600846406820F406
:101F0000FE0048604FF41F0088607047CC490968A4
:101F100021F48031CA4A11601146096821F48021F8
:101F20001160B0F5803F03D0B0F5802F0ED106E0F0
:101F3000C349096841F48031C14A116007E0C049D2
:101F4000096841F4A021BE4A116000E000BF00BF53
:101F5000704710B501460022002300204A11012AD3
:101F600002D1B74C236806E0022A02D1B44C236A9E
:101F700001E0B34C636A01F01F02012494401C424B
:101F800001D0012000E0002010BD70B50024002524
:101F9000002600BF3120FFF7DCFF0646641CB4F5C5
:101FA000A06F01D0002EF5D03120FFF7D2FF08B18D
:101FB000012500E00025284670BD01460020A04A0A
:101FC000106820F0F80040EAC100106070479F4997
:101FD0000860704702460020994B586820F47C1036
:101FE00042EA01031843964B5860704797490866C8
:101FF000704701460020924A506820F003000843D1
:10200000506070478E48406800F00C0070470146F1
:1020100000208B4A506820F0F00008435060704761
:1020200001460020864A506820F4E0600843506072
:10203000704701460020824A506820F4605040EA10
:10204000C1005060704729B17D4A527A02437C4BEF
:102050005A7206E07A4A527AC343DBB21A40784B8E
:102060005A7270477A490860704701460020744AE6
:10207000506820F440400843506070470021754A82
:1020800011706F4A82F82010012802D0042808D16C
:1020900003E001216F4A117004E005216D4A1170BF
:1020A00000E000BF00BF70476B490860704764499B
:1020B000096A0143624A11627047674944390860FE
:1020C000704730B500210022002400235C4D6D686C
:1020D00005F00C0121B1042905D0082923D105E020
:1020E0005E4D056022E05D4D05601FE0544D6D685A
:1020F00005F47012524D6D6805F48034022505EB2D
:1021000092421CB9564D554305600BE04C4D6D682D
:1021100015F4003F03D0524D5543056002E04F4D8A
:102120005543056002E04D4D056000BF00BF444DC2
:102130006D6805F0F00109094A4D6B5C0568DD40EA
:1021400045603F4D6D6805F4E061090A454D6B5CE3
:102150004568DD4085603A4D6D6805F46051C90AF7
:10216000404D6B5C4568DD40C560354D6D6805F4DC
:102170004041890B3C4D6B5CC568B5FBF3F50561CF
:1021800030BD29B12E4A526902432D4B5A6104E0F9
:102190002B4A526982432A4B5A61704729B1284A17
:1021A00092690243264B9A6104E0254A9269824370
:1021B000234B9A61704729B1214AD2690243204BCF
:1021C000DA6104E01E4AD26982431D4BDA6170472E
:1021D00029B11B4AD2680243194BDA6004E0184A5D
:1021E000D2688243164BDA60704729B1144A1269EB
:1021F0000243134B1A6104E0114A12698243104BE7
:102200001A61704714494039086070470F49C86423
:1022100070470B49C87170470948406A40F08070A8
:1022200007494862704701460020054A92680A4201
:1022300001D0012000E000207047014988727047FA
:10224000001002400000FFF8FFFFF6FE00004242CF
:10225000D8004242201002408004424200127A001C
:1022600000093D00280000203800002010B5044679
:10227000FE48844208D10121C014FFF7A9FF0021C4
:10228000E014FFF7A5FFC4E0B4F1804F08D10121AD
:102290000846FFF7AAFF00210120FFF7A6FFB8E0DC
:1022A000F348844208D101210220FFF79EFF00215C
:1022B0000220FFF79AFFACE0EE48844208D10121EA
:1022C0000420FFF792FF00210420FFF78EFFA0E01B
:1022D000E948844208D101210820FFF786FF002148
:1022E0000820FFF782FF94E0E448844208D10121EE
:1022F0001020FFF77AFF00211020FFF776FF88E01B
:10230000DF48844208D101212020FFF76EFF002121
:102310002020FFF76AFF7CE0DA48844208D10121DF
:102320004014FFF755FF00216014FFF751FF70E0E4
:10233000D548844209D10121C804FFF749FF002193
:102340004FF40020FFF744FF63E0D048844209D1F6
:1023500001210805FFF73CFF00214FF48010FFF733
:1023600037FF56E0CA48844209D101214805FFF7EA
:102370002FFF00214FF40010FFF72AFF49E0C54866
:10238000844208D101214020FFF72FFF0021402087
:10239000FFF72BFF3DE0C048844208D10121802097
:1023A000FFF723FF00218020FFF71FFF31E0BB482C
:1023B000844208D101218015FFF717FF0021A015E5
:1023C000FFF713FF25E0B648844209D10121080434
:1023D000FFF7FEFE00214FF48030FFF7F9FE18E012
:1023E000B048844209D101214804FFF7F1FE0021E1
:1023F0004FF40030FFF7ECFE0BE0AB48844208D10D
:1024000001218804FFF7E4FE00214FF48020FFF74C
:10241000DFFE10BD00220288944B98420ED0994BEB
:1024200098420BD0B0F1804F08D0914B984205D024
:10243000904B984202D0904B984204D14FF68F7344
:102440001A404B881A438D4B984207D08C4B9842C8
:1024500004D04FF6FF431A40CB881A4302808B8882
:1024600083850B880385814B98420BD0854B98421E
:1024700008D08B4B984205D08A4B984202D08A4BA9
:10248000984201D10B7A038601238382704770B58D
:10249000002400220023058C4FF6FE76354005848B
:1024A000028C8388048B4FF68F752C40B51E2C4010
:1024B0000D882C43751E2A400D892A434D882A43D6
:1024C0006A4DA8420BD06F4DA84208D0744DA84267
:1024D00005D0744DA84202D0734DA84213D14FF6D7
:1024E000F7752A404D892A434FF6FB752A408D889F
:1024F0002A434FF6FF652B404FF6FF552B408D8941
:102500002B43CD892B4383800483CD888586028429
:1025100070BD70B5002400220023058C4FF6EF76C5
:1025200035400584028C8388048B48F6FF752C4067
:102530004FF6FF452C400D882D0644EA15444FF612
:10254000DF752A400D892D0542EA15424D882D057B
:1025500042EA1542454DA84202D04A4DA8421BD13D
:102560004FF67F752A404D892D0542EA15424FF6F8
:10257000BF752A408D882D0542EA15424FF6FF357A
:102580002B404FF2FF752B408D89AD0443EA154374
:10259000CD89AD0443EA154383800483CD88058744
:1025A000028470BD70B5002400220023058C4FF614
:1025B000FF6635400584028C8388848B4FF68F75C7
:1025C0002C404FF6FC752C400D882C434FF6FF55E0
:1025D0002A400D892D0642EA15424D882D0642EA11
:1025E0001542224DA84202D0264DA8421BD14FF2DF
:1025F000FF752A404D892D0642EA15424FF6FF35F8
:102600002A408D882D0642EA15424EF6FF752B4072
:102610004DF6FF752B408D892D0543EA1543CD8975
:102620002D0543EA154383808483CD888587028402
:1026300070BD70B5002200230024058C4EF6FF7695
:1026400035400584038C8488828B48F6FF752A40C8
:102650004FF6FF452A400D882D0642EA15424DF6F9
:10266000FF752B400D892D0720E00000002C014054
:102670000004004000080040000C00400010004032
:102680000014004000340140004C01400050014063
:102690000054014000180040001C00400020004091
:1026A00000400140004401400048014043EA154316
:1026B0004D882D0743EA1543F84DA84202D0F84D46
:1026C000A84206D14BF6FF752C408D89AD0544EA32
:1026D000154484808283CD88A0F84050038470BD67
:1026E000828B4FF2FF331A408283828B0B0642EAC1
:1026F000134282837047F0B50C4615460022002134
:102700000026078C4EF6FF7C07EA0C070784828BB5
:10271000018C27073E0C40F6FF473A402F0642EA5D
:1027200017421F0742EA1742DC4FB8420ED0DC4F77
:10273000B8420BD0B0F1804F08D0DA4FB84205D084
:10274000D94FB84202D0D94FB84206D14DF6FF77E3
:10275000394046F48057394305E047F6FF57394082
:1027600044F48057394382830184F0BD828B4FF655
:10277000F3731A408283828B0A4382837047F0B5D9
:102780000C461546002200210026078C4FF6FF6CF0
:1027900007EA0C070784828B018C27063E0C4FF654
:1027A0000C773A401F0545EA17473A43BB4FB842FA
:1027B0000ED0BB4FB8420BD0B0F1804F08D0B94F0C
:1027C000B84205D0B84FB84202D0B84FB84206D18F
:1027D0004FF6FF57394046F48077394305E04FF212
:1027E000FF57394044F48077394382830184F0BD38
:1027F000028B4FF2FF331A400283028B0B0642EA30
:10280000134202837047F0B50C46154600220021A2
:102810000026078C4FF6EF7C07EA0C070784028B33
:10282000018C27053E0C40F6FF473A401F0742EA5D
:1028300017422F0642EA1742984FB8420ED0984FDF
:10284000B8420BD0B0F1804F08D0964FB84205D0B7
:10285000954FB84202D0954FB84206D14FF6DF7778
:10286000394046F01007394305E04FF65F773940AD
:1028700044F01007394302830184F0BD028B4FF608
:10288000F3731A400283028B0A4302837047F0B548
:102890000C46154600220021068C4FF6FE773E407E
:1028A0000684028B018C4FF60C7632401E0545EAF9
:1028B00016463243794EB0420ED0794EB0420BD01C
:1028C000B0F1804F08D0774EB04205D0764EB0427E
:1028D00002D0764EB04206D14FF6FD76314044F03C
:1028E0000106314305E04FF6F576314044F001062C
:1028F000314302830184F0BD70B505460C4667483C
:1029000085420ED0664885420BD0B5F1804F08D085
:102910006448854205D06448854202D063488542B8
:1029200000D100E000BF208850B92389A2886188C7
:102930002846FFF7ACFFE1882846FFF79FFF25E018
:10294000208804280AD12389A28861882846FFF7B5
:102950005AFFE1882846FFF74BFF17E02088082838
:102960000AD12389A28861882846FFF708FFE188F9
:102970002846FFF7FBFE09E02389A28861882846E4
:10298000FFF7B9FEE1882846FFF7AAFE70BD2DE9E2
:10299000F04105460C4600260127608808B902264A
:1029A00000E00026A088012801D1022700E00127CD
:1029B0002088A0B92389A28861882846FFF767FF8D
:1029C000E1882846FFF75AFF23893A4631462846D0
:1029D000FFF719FFE1882846FFF70AFF13E0238974
:1029E000A28861882846FFF70EFFE1882846FFF796
:1029F000FFFE23893A4631462846FFF748FFE18823
:102A00002846FFF73BFFBDE8F0810A884B881A4350
:102A10008B881A43CB881A430B891A434B891A4374
:102A20008B891A43A0F8442070474FF6FF718180CC
:102A300000210180C1804180017270470021018026
:102A400041808180C180018141818181C181704744
:102A5000002101804180012181800021C18001810C
:102A600070470021018041808180C18001814181C6
:102A70008181704721B1028842F00102028004E0A6
:102A800002884FF6FE731A400280704781B1B0F899
:102A9000442042F40042A0F844200FE0002C014002
:102AA000003401400004004000080040000C0040D9
:102AB000B0F84420C2F30E02A0F84420704710B5CD
:102AC0001AB183890B43838104E08389CC43A4B288
:102AD0002340838110BD8182704741EA0203A0F840
:102AE0004830704710B51AB183890B43838104E0E5
:102AF0008389CC43A4B22340838110BD01894FF662
:102B0000F8721140018170470A46002101894FF691
:102B10008F73194011430181704730B504460D464B
:102B200029462046FFF7F0FF208940F0070020816A
:102B300030BD2DE9F04104460D4616461F46602D76
:102B400006D13B46012231462046FFF75CFE05E0F8
:102B50003B46012231462046FFF799FE2946204692
:102B6000FFF7D2FF208940F007002081BDE8F08107
:102B700030B50C4600210189C9B21D0642EA15454F
:102B800025432943018130BD2DE9F04105460E461C
:102B900017469846002443463A4631462846FFF7F2
:102BA000E7FF2C894FF6F870044044F007044FF615
:102BB0008F70044044F070042C81BDE8F081F0B5C2
:102BC00004460D4616461F463B46324629462046D9
:102BD000FFF7CEFF208940F480402081F0BD0185C1
:102BE000828270470A46002101884FF68F73194090
:102BF000114301807047F0B50C4615461E46002172
:102C0000002200230189028B038C4FF6F8773940AC
:102C100021434FF6FC473A4040F201173A434FF642
:102C2000DD773B40370545EA17473B430181028387
:102C30000384F0BD0A460021018B4FF68F731940C3
:102C40001143018370470A460021018B48F6FF7348
:102C50001940130641EA1341018370470A460021D7
:102C6000818B4FF68F7319401143818370470A4659
:102C70000021818B48F6FF731940130641EA134186
:102C80008183704721B1028842F08002028004E013
:102C900002884FF67F731A400280704721B1828804
:102CA00042F00402828004E082884FF6FB731A40EF
:102CB0008280704721B1828842F00802828004E05D
:102CC00082884FF6F7731A408280704721B182885C
:102CD00042F00102828004E082884FF6FE731A40BF
:102CE000828070470A460021018B4FF6F773194026
:102CF0001143018370470A460021018B4FF2FF7395
:102D00001940130641EA1341018370470A46002126
:102D1000818B4FF6F77319401143818370470A4640
:102D20000021818B4FF2FF731940130641EA1341D2
:102D3000818370470A460021018B4FF6FB731940CF
:102D40001143018370470A460021018B4FF6FF3380
:102D50001940130641EA1341018370470A460021D6
:102D6000818B4FF6FB7319401143818370470A46EC
:102D70000021818B4FF6FF331940130641EA1341BE
:102D8000818370470A460021018B4FF67F731940FB
:102D90001143018370470A460021018BC1F30E01E4
:102DA000130641EA1341018370470A460021818BD3
:102DB0004FF67F7319401143818370470A46002103
:102DC000818BC1F30E01130641EA134181837047E1
:102DD0000A460021018C4FF6FD731940114301840E
:102DE00070470A460021018C4FF6F77319401143D2
:102DF000018470470A460021018C4FF6DF731940A9
:102E0000130541EA1341018470470A460021018CF1
:102E10004FF67F731940130541EA1341018470474F
:102E20000A460021018C4FF6FF531940130641EA70
:102E30001341018470470A460021018C4FF2FF7351
:102E40001940130641EA1341018470470A460021E4
:102E5000018C4DF6FF731940130741EA13410184B9
:102E6000704730B5002301248C40A3B2048CDD43AD
:102E7000ADB22C400484048C02FA01F5ADB22C43AF
:102E8000048430BD30B5002304248C40A3B2048CEC
:102E9000DD43ADB22C400484048C02FA01F5ADB2DE
:102EA0002C43048430BD70B503460020002418462E
:102EB000183001258D40ACB21D8CE643B6B23540CA
:102EC0001D8409B1082909D100EB6100056825F0CE
:102ED000700505600568154305600CE00D1FADB277
:102EE00000EB6500056825F4E045056005681606F9
:102EF00045EA1645056070BD21B1028842F0020224
:102F0000028004E002884FF6FD731A400280704789
:102F100021B1028842F00402028004E002884FF6E8
:102F2000FB731A400280704721B1828842F0800210
:102F3000828004E082884FF67F731A408280704757
:102F400002884FF6F7731A40028002880A43028013
:102F5000704782884FF68F731A40828082880A43B6
:102F60008280704702894FF6F8731A400281028905
:102F70000A430281704702894FF67F731A4002812B
:102F800002890A43028170478184704781857047B6
:102F9000818670470187704781877047A0F840108D
:102FA000704702884FF6FF431A40028002880A43A6
:102FB000028070470146888E70470146088F70472F
:102FC0000146888F70470146B1F8400070470146BE
:102FD000888C70470146088D704702460020138A8E
:102FE0000B4201D0012000E000207047CA4302825A
:102FF000704730B50246002000230024158A05EAF8
:103000000103958905EA010413B10CB1012000E028
:10301000002030BDCA4302827047000010B504464C
:10302000FC48844209D101218803FFF7D1F800212F
:103030004FF48040FFF7CCF832E0F748844209D1E2
:1030400001214804FFF7D1F800214FF40030FFF7C9
:10305000CCF825E0F148844209D101218804FFF72A
:10306000C4F800214FF48020FFF7BFF818E0EC48C7
:10307000844209D10121C804FFF7B7F800214FF4B9
:103080000020FFF7B2F80BE0E648844208D10121A6
:103090000805FFF7AAF800214FF48010FFF7A5F804
:1030A00010BD2DE9F04786B005460E460024A24625
:1030B00000BFA1460027B08900B100BF2F462C8A6F
:1030C0004CF6FF700440F08804432C82AC894EF625
:1030D000F3100440B08831890843718908430443E0
:1030E000AC81AC8A4FF6FF400440B0890443AC8207
:1030F00001A8FEF7E6FFC748874202D1DDF810A01D
:1031000001E0DDF80CA0A88910F4004F08D00AEB0C
:10311000CA0000EB0A1031684900B0FBF1F807E083
:103120000AEBCA0000EB0A1031688900B0FBF1F825
:103130006420B8FBF0F004012009642101FB108930
:10314000A88910F4004F08D0322000EBC900B0FB72
:10315000F1F000F00700044308E0322000EB091012
:103160006421B0FBF1F000F00F0004432C8106B0A5
:10317000BDE8F0874FF41651016000218180C180C5
:1031800001810C21418100218181704710B50246E7
:103190000020108A4FF2FF0318400B884C8823430D
:1031A0008C882343CC8823431843108210BD002110
:1031B000018041808180C180704721B1828942F4C1
:1031C0000052828104E082894DF6FF731A408281A9
:1031D0007047F0B503460024002600250020A1F525
:1031E00010676A3F00D100BF1846C1F3421401F0D6
:1031F0001F06012707FA06F5012C01D10C3004E067
:10320000022C01D1103000E014301AB107682F43AE
:10321000076002E00768AF430760F0BD10B51AB160
:10322000838A0B43838204E0838ACC43A4B2234085
:10323000838210BD028A4FF6F0731A400282028A1E
:103240000A430282704782894FF2FF731A408281DB
:1032500082890A438281704721B1828942F0020249
:10326000828104E082894FF6FD731A4082817047A3
:10327000028A4FF6DF731A400282028A0A430282F0
:10328000704721B1028A42F48042028204E0028A3D
:103290004BF6FF731A4002827047C1F30802828026
:1032A000704701468888C0F308007047818941F063
:1032B000010181817047028BD2B20283028B42EA04
:1032C000012202837047028B02F47F420283028B49
:1032D0000A430283704721B1828A42F0200282822F
:1032E00004E0828A4FF6DF731A408282704721B170
:1032F000828A42F01002828204E0828A4FF6EF73E3
:103300001A408282704721B1828A42F0080282828A
:1033100004E0828A4FF6F7731A408282704721B127
:10332000828942F40042828103E08289C2F30E0264
:103330008281704721B1828A42F40062828204E075
:10334000828A4FF2FF731A4082827047828A4FF658
:10335000FB731A408282828A0A438282704721B1BB
:10336000828A42F00202828204E0828A4FF6FD7372
:103370001A408282704702460020B1F5007F00D1DA
:1033800000BF13880B4201D0012000E000207047ED
:1033900001F40072B2F5007F00D100BFCA43028081
:1033A000704770B502460024002300250020A1F5D7
:1033B00010666A3E00D100BFC1F3421501F01F0341
:1033C000012606FA03F3012D02D19689334006E067
:1033D000022D02D1168A334001E0968A33400C1246
:1033E000012606FA04F41688344013B10CB101200A
:1033F00000E0002070BD10B500220023A1F510648C
:103400006A3C00D100BF0A1201249440A3B2DC43FD
:10341000048010BD003801400044004000480040D6
:10342000004C00400050004010B50446BF488442A4
:1034300008D101218014FEF7CBFE0021A014FEF775
:10344000C7FE16E0BA48844208D101210014FEF7F5
:10345000CCFE00212014FEF7C8FE0AE0B5488442E5
:1034600007D10121C013FEF7C0FE0021E013FEF7D3
:10347000BCFE10BD10B50022028802F441520B8838
:103480004C8823438C882343CC8823430C892343D3
:103490004C8923438C892343CC8923431A430280DC
:1034A000838B4FF2FF74234083830B8A038210BD0A
:1034B0002DE9F04F85B005460C464FF00009022774
:1034C0004FF000084FF0010B0026B246A88B4FF2D8
:1034D00040010840A88302202884B5F81C90A06809
:1034E000022801D100BF36E0A08810B94FF0010BCF
:1034F00001E04FF0020B8E48854200D100E000BF92
:103500006846FEF7DEFDDDF800A0E088B0F5007F3C
:103510000AD14FEA1A2000EB80004000A168B0FBFE
:10352000F1F0401D86B20BE04FEA4B10BAFBF0F011
:1035300000EB80004000A168B0FBF1F0401D86B2B6
:103540000A20B6FBF0F606F00108A6EB0800C0F36F
:103550004F074FEA0828022F01DBFF2F02DD022769
:103560004FF00008E08840EA080038432884A0882B
:10357000A1890843618808432188084340F400601A
:1035800040EA0909A5F81C9005B0BDE8F08F0021BC
:10359000018041808180C180018141818181C1811F
:1035A0000721018270470021018041808180C18014
:1035B0000221816000218181704721B1028842F09F
:1035C0004002028004E002884FF6BF731A40028076
:1035D000704721B1828B42F48062828304E0828B47
:1035E0004FF6FF331A408283704770B500240023E2
:1035F0000C110125A540ABB21AB185881D43858009
:1036000004E08588DE43B6B23540858070BD10B5D4
:103610001AB183880B43838004E08388CC43A4B22F
:103620002340838010BD818170470146888970479F
:10363000A1F57E42FF3A04D0028842F480720280F3
:1036400004E002884FF6FF631A400280704721B100
:10365000828842F00402828004E082884FF6FB7385
:103660001A408280704702884FF2FF731A4002802E
:1036700002880A4302807047018841F4805101802A
:10368000704721B1028842F40052028004E00288AF
:103690004DF6FF731A400280704702460020012950
:1036A00001D0108B00E0908A70470146088A70476D
:1036B000B1F5804F04D1028842F48042028004E0D8
:1036C00002884BF6FF731A400280704702460020C2
:1036D00013890B4201D0012000E000207047CA434B
:1036E00002817047F0B50246002000240023002527
:1036F00001F00F070126BE40B4B20B1101269E4017
:10370000B3B2968806EA03051689264202D00DB1A7
:10371000012000E00020F0BD10B5002201F00F04F0
:103720000123A3409AB2D343038110BD003001406E
:1037300000380040003C0040FDF7CCFFFEF750F899
:103740004FF6FF70064988800120087000204870FD
:10375000FE20C871FDF7C0FF00BF00F0ADF8FCE728
:103760008C00002007202D490870012008710020DE
:103770004871FF208870C8700846407820F03F00EC
:10378000401C48700846407820F0400040304870A7
:103790002348C0798871234801782048407861F334
:1037A000C7101E494870084600781F4908701B481A
:1037B0004078C0F30500800018494978C1F38011B2
:1037C00040EA41001549497840EAD110164948704D
:1037D0001248807888701148C078C8700F48007906
:1037E00008710E48407948710C4880798871012031
:1037F000704710B5FFF7B6FF042000F029F810BDA0
:1038000010B5FDF75EFE0948006880F00100084928
:10381000C1F88401FDF741FE10BD00003C0000200E
:103820008C0000206A000020740000208481224265
:1038300000802242002003E000212D4A1154401C48
:103840000528F9DB00212B4A11602B4A11607047D3
:1038500001462748284A1268805C78B92448264ADD
:103860001268815424480068401C0522B0FBF2F322
:1038700002FB1300204A1060002070470120FCE783
:103880001B481C4A1268805CA0B11948194A12688A
:10389000815C0020164A174B1B68D05415480068FD
:1038A000401C0522B0FBF2F302FB1300114A10602A
:1038B000084670470220FCE710B5FFF7E1FF044619
:1038C000042C06D0072C07D0092C08D00B2C0CD1C7
:1038D00008E0FFF795FF08E000F081F805E000F050
:1038E000C2F802E000F052F900BF00BF204610BD50
:1038F0004C000020540000205800002030B508245F
:103900006A4D2C702C46647824F03F04E41C6C70E3
:103910002C46647824F0400440346C7001290BD1AB
:1039200050B92C46647824F0800480346C700124F3
:10393000AC712C46E2711DE0012911D101280FD193
:103940005A4C647824F080048034584D6C70012403
:10395000AC712C46E271647824F040046C7009E08C
:10396000524C647824F08004504D6C700124AC718A
:103970000024EC714E4C24784C4D2C7100246C7159
:103980006B802C4624784B4D2C70484C6478C4F3E3
:103990000504A400454D6D78C5F3801544EA45043F
:1039A000424D6D7844EAD514424D6C703F4C6488AA
:1039B0002412AC703D4C6488EC703C4C24792C7122
:1039C0003A4C64796C71394CA479AC71374CE47918
:1039D000EC7100242C726C72AC72EC7230BD2DE96B
:1039E000F0410024002600273148857A324840798A
:1039F0003149097940EA01203049086000BF1AE0E6
:103A00002B480C3000EBC40040882C4909688842E0
:103A10000FD10126012729480368601CC2B239462C
:103A20003046FFF76BFFFDF74CFDFDF736FDBDE8B7
:103A3000F081601CC4B21E48807AA042E0DC1C48C1
:103A4000807AFE280DDC0127681CC5B21B482A4677
:103A5000394603683046FFF751FFFDF732FDFDF7A9
:103A60001CFD00BFE3E7144801791148827A0C304D
:103A700000F83210104841790D48827A0C3000EB82
:103A8000C20041700D48006881B20948827A0C304A
:103A900000EBC20041800648807A401C04498872CD
:103AA0000846807AC0F1FE00C871704760000020AF
:103AB0008C00002074000020800000205C000020AA
:103AC0000146491C0878800870470C4880780C49EA
:103AD0000978884205D10948C0780949497888425F
:103AE00007D006488078FF2805D10448C078FF2811
:103AF00001D1012070470020FCE700008000002079
:103B00008C0000200822354B1A701A46527822F099
:103B10003F02921D5A701A46527822F040025A70A3
:103B20001A469070D1702E4A12781A712C4A527827
:103B30005A712C4A12889A711A4612782A4B1A70B6
:103B4000264A5278C2F305029200244B5B78C3F3F5
:103B5000801342EA4302244B5A70204A92789A70AA
:103B60001E4AD278DA701D4A12791A711B4A5279AC
:103B70005A711A4A927912129A71184A9279DA7124
:103B800000221A725A729A72DA7270472DE9F04165
:103B90000024002700250026144805794679C079BD
:103BA0001249897940EA0120C7B2104844790C488B
:103BB0000C3000EBC400C7800C48017A08480C3078
:103BC00000EBC400017131462846FFF79BFFFDF76B
:103BD00078FCFDF762FCBDE8F08100006B0000207E
:103BE0008C0000206800002074000020800000206D
:103BF000704700000FB4044910B503AA029800F002
:103C000009F810BC5DF814FB2400002070477047D1
:103C100070477047074B70B50C467B4400F011F8B5
:103C20000546204600F020F810B14FF0FF3070BD7F
:103C3000284670BD05DCFFFF01694A1C0261087857
:103C4000704700B58FB0CDE90131002105910549DC
:103C50007944CDE903101146684600F02EF80FB004
:103C600000BD0000E5FFFFFFC06800F08000704766
:103C7000754600F03BF8AE4605006946534620F015
:103C80000700854618B020B5FDF7F4FEBDE82040DA
:103C90004FF000064FF000074FF000084FF0000B08
:103CA00021F00701AC46ACE8C009ACE8C009ACE8BB
:103CB000C009ACE8C0098D4670472DE9F0410646C1
:103CC0000024D6E90170F568804602E04146B84715
:103CD000641C3046A8470028F8D12046BDE8F08192
:103CE0000446AFF300802046FCF76BFA00487047AB
:103CF00088080020004870478C08002090EA010FD7
:103D000048BF81F0004100F17682421A3CBF801A20
:103D100089184FEAD0524FF07F4C1CEA410FA2EBBA
:103D2000D15318BF9CEA026F00F03B804FF0004C6B
:103D30004CEA00204CEA012121FA03FC10EB0C0CA8
:103D40001ED202F1FF325FEA1C2040EBC25038BFA6
:103D500070471CF07F0F4FEA400C18BFBCF17F4F3B
:103D600038BF7047C3F12003994008BF20F001001D
:103D7000BCF17F4F38BF7047A0F1C04000F024BABB
:103D80004FEA3C00000A40EBC25028BF1CF0FF0F76
:103D90004FEA400CE6D018BFBCF17F4F38BF7047E8
:103DA000EAE79CEA026F05D010EA5C0F08BF00F05A
:103DB0000040704710B500F0BAF900BF64FBBE3E8A
:103DC000401058BFC0F14040491058BFC1F14041B8
:103DD0008142EFF3008070474FF47F0C1CEAD01251
:103DE0001EBF1CEAD11392EA0C0F93EA0C0F00F0ED
:103DF000858090EA010F48BF42F4807240F4000CC5
:103E000041F400002CF07F4120F07F4000B581425A
:103E1000A2EB03020FF2081CACEB504EC0F1000005
:103E20009EF800E04FEA4E0E00FB0EFC38BF490042
:103E30004FEA2C1C02F5FA020CFB0EF34FEACE1EE1
:103E40004FEA112C4FEAC1210EEB635E42EB224296
:103E50000EFB0CFC4FEA1C5300FB03114FEA112C24
:103E60004FEA01310EFB0CFC4FEADC4C00FB0C115D
:103E7000C14228BF09184CEB03335DF804EB10EB8B
:103E8000410143EBC250B2F57C0F38BF704729D5D2
:103E900012F0F00F1CBF00F1C04000F0004070476E
:103EA000008182838485868788898B8C8D8E8F9113
:103EB0009293959697999A9C9D9FA0A2A3A5A7A837
:103EC000AAACAEB0B2B3B5B7B9BCBEC0C2C5C7C963
:103ED000CCCED1D4D7D9DCDFE2E6E9ECF0F3F7FAC7
:103EE000FE0000004FEA400C0CF1807CBCF17E4FDC
:103EF00028BF7047B0F1C04000F066B990EA010FEA
:103F00000CEAD11348BF42F48072624538BF634562
:103F100007D213F47F0F16D080EA010000F00040B2
:103F2000704710B500F003F9097EFC3E00F005B8BB
:103F300080EA010000F00040704780EA010000F0D4
:103F4000004000F041B912F47F0F04BF02487047EF
:103F500080EA010000F038B90000C07FC10DD1F146
:103F60009E0206DB4FEA002343F0004323FA02F0EF
:103F70007047004207D54FEA4001B1F1FE4F02D22F
:103F80004FF00000704710B500F0D1F8499224803E
:103F9000002070476FEA200070470000B0FA80F3FD
:103FA00010FA03F2C3F19D030AD0D90501EB1220E8
:103FB000530638BF704700F1010008BF20F0010030
:103FC0007047000050EA010C00F113801CF5000F4F
:103FD00058BFBCF5000F01D48842704707D710F5D1
:103FE000000F58BF11F5000F15D488427047894261
:103FF00070471CF5000F04D5BCF5000FF7D58142C2
:1040000070474FF0807C1CEB400F38BF1CEB410F1A
:1040100001D28142704710B500F089F8922449001E
:104020004FF000504FF08051FFF7CABE4FF47F0CA5
:104030001CEAD0121EBF1CEAD11392EA0C0F93EABD
:104040000C0F00F0478090EA010F48BF42F48072E5
:104050004FF0004C4CEA00204CEA012102EB030235
:10406000A0FB0113A2F50002002918BF43F00103D1
:104070005B0028BF4FEA330342EB22425FEA132C76
:104080004CEBC2502EBFBCEB436FB2F57C0F7047B8
:104090004FEA036CBCF1004F08BF20F00100B2F5FD
:1040A0007C0F38BF70470BD582F0FF0212F5803FBE
:1040B000C8BF704700F1C040D8BF00F00040704753
:1040C00000F5000C5FEA4C0C48BF7047B0F1C040EF
:1040D00000F07AB890EA010F0CEAD11348BF42F41D
:1040E0008072624538BF634504D280EA010000F067
:1040F0000040704710B500F01AF800BF8900013E7B
:1041000000F007B800F009B85FEA410C5FEA1C6CE8
:1041100008D080EA010000F057B85FEA400C5FEA7F
:104120001C6CF6D14FF00040A0F5800070470EF1F6
:10413000020E2EF0030E5EF8044B244204D44FEA24
:104140004102B2F17F4F11D84FEA4003B3F17F4FE4
:104150000CD80ED14FEAD07CB2F17F4F0CEB4C0C57
:104160000CF1020C08BF4CEBD17C04E04FF0080CC2
:1041700001E04FEAD17C0CEB4C0324FA03F404F089
:104180000704B4F1040C06D20EEB840CBDE8104019
:104190004CF0010C6047DFE80CF0070802024FF01A
:1041A0000040A0F5800010BD0846420018BFD2F1C3
:1041B000807288BF00F0004010BD10B5FFF79AFD77
:1041C0004FF00001016010BDFF2141EAD050C00551
:1041D000704780F0004090EA010F7FF596AD81F0C6
:1041E000004100F008B8000090EA010F48BF81F0DC
:1041F00000413FF58AAD421A04D882F00042A0EB9C
:10420000020011444FEAD0524FF07F4C1CEA410F9C
:10421000A2EBD15318BF9CEA026F4AD04FF0004C7A
:104220004CEA00204CEA012121FA03FCB0EB0C0C13
:104230000FD412F0FE0F36D05FEA4C001DD50012ED
:1042400040EBC25038BF70471CF03F0F18BF70479B
:104250000BE0A2F101025FEA1C2040EBC25038BF24
:1042600070471CF07F0F18BF7047C3F120039940BF
:1042700014BF401E20F00100704780084FEA12234F
:1042800008BF7047B0FA80FCA2EB0C02CCF1280CFE
:1042900060FA0CF093EA122F04BF00EBC250704793
:1042A0004FEAC3707047130A5FEADC1008BF70471B
:1042B000F6E79CEA026F04D010EA5C0F08BF00200A
:1042C000704710B5FFF733FF40DFF63E81F0004046
:1042D00070472100240A05B80000200A27000000CA
:1042E000110000000000D418097000C400084548FF
:1042F000C02006F7000000F80711700101020F400E
:10430000C02A410C81D20400250827013F0007552F
:1043100000005F0300840000000000003C43000830
:1043200000000020740000006C010008B043000889
:1043300074000020740E00008801000800A24A04E6
:104340000000000000000000010203040607080945
:10435000010000000000000000000000000000005C
:104360000000000000000000010203040102030439
:10437000060708090204060800000000000000000B
:10438000000000000000000000000000000000002D
:10439000000000000000000000000000000000001D
:1043A000000000000000010000000000000000000C
:0400000508000131BD
:00000001FF
